:020000040800F2
:10000000780600208901000891010008930100088A
:100010009501000897010008990100080000000000
:100020000000000000000000000000009B0100082C
:100030009D010008000000009F01000891060008D3
:10004000A3010008A3010008A3010008A301000800
:10005000A3010008A3010008A3010008A3010008F0
:10006000A3010008A3010008A3010008A3010008E0
:10007000A3010008A3010008A3010008A3010008D0
:10008000A3010008A3010008A3010008A3010008C0
:10009000A3010008A3010008A3010008A3010008B0
:1000A000A3010008A3010008A3010008A3010008A0
:1000B000A3010008A3010008A3010008A301000890
:1000C000A3010008A3010008A3010008A301000880
:1000D000A3010008A3010008A3010008A301000870
:1000E000A3010008A3010008A301000800F002F822
:1000F00000F03AF80AA090E8000C82448344AAF188
:100100000107DA4501D100F02FF8AFF2090EBAE885
:100110000F0013F0010F18BFFB1A43F0010318473B
:10012000B0060000D0060000103A24BF78C878C19D
:10013000FAD8520724BF30C830C144BF04680C60ED
:10014000704700000023002400250026103A28BF35
:1001500078C1FBD8520728BF30C148BF0B60704739
:100160001FB51FBD10B510BD00F031F81146FFF7E7
:10017000F7FF00F01BFB00F04FF803B4FFF7F2FFAE
:1001800003BC00F057F800000948804709480047C1
:10019000FEE7FEE7FEE7FEE7FEE7FEE7FEE7FEE737
:1001A000FEE7FEE704480549054A064B7047000094
:1001B0004D070008ED0000087800002078060020B8
:1001C000780200207802002070477047704775461B
:1001D00000F02CF8AE4605006946534620F00700B3
:1001E000854618B020B5FFF7DDFFBDE820404FF091
:1001F00000064FF000074FF000084FF0000B21F011
:100200000701AC46ACE8C009ACE8C009ACE8C009DD
:10021000ACE8C0098D46704710B50446AFF30080C6
:100220002046BDE81040FFF7A8BF00000048704717
:100230001800002001491820ABBEFEE7260002008E
:100240007047000070B500F02FFA14480068144A97
:10025000B0FBF2F1B1F1807F00D31DE021F07F40CF
:10026000401E4FF0E022506150170F22002807DA9D
:1002700013071D0E0B4B00F00F04241F1D5503E048
:1002800013071C0E084B1C5400BF00204FF0E02247
:1002900090610720106100BF70BD000004000020C5
:1002A00040420F0018ED00E000E400E000B5024617
:1002B00003E04FF47A7000F005F8101EA2F101027D
:1002C000F7D100BD0349086000BF02490968002951
:1002D000FBD17047000000202DE9F04102460025C7
:1002E0000026002000230024002791F803C00CF012
:1002F0000F0591F803C00CF0100CBCF1000F03D0F7
:1003000091F802C04CEA050591F800C0BCF1000F5D
:1003100031D0146800202BE04FF0010C0CFA00F3F0
:10032000B1F800C00CEA03069E4220D183004FF0D2
:100330000F0C0CFA03F7BC4305FA03FC4CEA040467
:1003400091F803C0BCF1280F06D14FF0010C0CFA54
:1003500000FCC2F814C00AE091F803C0BCF1480FD9
:1003600005D14FF0010C0CFA00FCC2F810C0401C83
:100370000828D1D31460B1F800C0BCF1FF0F34DD00
:10038000546800202EE000F1080C4FF0010808FA34
:100390000CF3B1F800C00CEA03069E4221D18300A1
:1003A0004FF00F0C0CFA03F7BC4305FA03FC4CEAC0
:1003B000040491F803C0BCF1280F05D100F1080C2A
:1003C00008FA0CF8C2F8148091F803C0BCF1480F89
:1003D00007D100F1080C4FF0010808FA0CF8C2F838
:1003E0001080401C0828CED35460BDE8F081000086
:1003F00008B501210C2000F0C7F8002274210F4835
:1004000000F024F800224FF480510D4800F01EF84F
:1004100010208DF803007C20ADF8000001208DF83D
:10042000020069460548FFF757FF4FF48050ADF8CA
:10043000000069460248FFF74FFF08BD0008014071
:10044000000C014041617047016170470AB10161D0
:1004500000E041617047000010B540210648FFF7F9
:10046000F3FF0120FFF722FF40210348FFF7EAFFD7
:100470000120FFF71BFF10BD0008014070B50646C4
:100480000C461CB906F18000C5B204E0012C02D173
:1004900006F1C000C5B2284600F068F870BD000043
:1004A00010B5FFF7A5FF002000F042F800224FF43E
:1004B00080510F48FFF7CAFF032000F039F8FFF71B
:1004C000CBFFFFF7C9FFFFF7C7FF022000F030F8AE
:1004D000FFF7C2FF282000F049F80C2000F046F892
:1004E000062000F043F8012000F040F810BD0000A5
:1004F000000C014010B504464FF480510548FFF749
:10050000A3FF204600F032F84FF480510148FFF776
:1005100099FF10BD000C014010B5044603E020789F
:10052000FFF7E8FF641C20780028F8D110BD000018
:1005300010B5044604F0010220210B48FFF786FFA6
:10054000C4F3400210210848FFF780FFC4F3800283
:1005500008210548FFF77AFFC4F3C00204210248CE
:10056000FFF774FF10BD00000008014010B50446FD
:100570002011FFF7DDFFFFF76FFF2046FFF7D8FFE1
:10058000FFF76AFF10BD000029B1064A92690243D5
:10059000044B9A6104E0034A92698243014B9A61D9
:1005A000704700000010024010B500F001F810BDC7
:1005B0000CB50020019000903348006840F4803072
:1005C0003149086000BF3048006800F400300090F6
:1005D0000198401C0190009818B90198B0F5A06FDF
:1005E000F1D12948006800F4003010B101200090DA
:1005F00001E0002000900098012843D123480068C2
:1006000040F01000214908600846006820F003000F
:1006100008600846006840F0020008601A48406818
:10062000194948600846406848600846406840F4F8
:10063000806048600846406820F47C1048600846A6
:10064000406840F4E81048600846006840F0807058
:10065000086000BF0C48006800F000700028F9D066
:100660000948406820F00300074948600846406890
:1006700040F00200486000BF0348406800F00C00F2
:100680000828F9D10CBD00000010024000200240F3
:100690000448006820B103480068401E0149086012
:1006A000704700000000002010B50021002000224B
:1006B000214B5B6803F00C0121B1042906D0082905
:1006C00028D107E01D4B1E4C236027E01B4B1C4C20
:1006D000236023E0184B5B6803F47010164B5B68D3
:1006E00003F48032022303EB904022B9154B4343BD
:1006F000134C23600DE0104B5B6803F4003323B10F
:10070000104B43430E4C236003E00C4B43430C4C13
:10071000236003E0094B0A4C236000BF00BF064B77
:100720005B68C3F30313084CE15C054B1B68CB40CB
:10073000034C236010BD00000010024000127A003C
:100740000400002000093D000800002010B51348F7
:10075000006840F0010011490860084640681049EF
:1007600008400E494860084600680E4908400B4999
:1007700008600846006820F4802008600846406849
:1007800020F4FE0048604FF41F008860FFF70CFF64
:100790004FF000600449086010BD000000100240E6
:1007A0000000FFF8FFFFF6FE08ED00E0FFF74AFD4E
:1007B000FFF776FE00210620FFF760FE02A0FFF79C
:1007C000ABFE00BFFEE7000044616E680000000061
:1007D000F0070008000000201800000028010008B1
:1007E0000808000818000020600600004401000806
:1007F0000000000000A24A04000000000000000009
:080800000102030406070809C8
:04000005080000ED02
:00000001FF
