:020000040800F2
:100000009010002001010008A92100082D210008FE
:10001000A5210008E5010008F53F000800000000E8
:10002000000000000000000000000000B1210008F6
:100030007905000800000000AD210008B521000886
:100040001B0100081B0100081B0100081B01000820
:100050001B0100081B0100081B0100081B01000810
:100060001B0100081B0100081B0100081B01000800
:100070001B0100081B0100081B0100081B010008F0
:100080001B0100081B0100081B0100081B010008E0
:10009000793F00081B0100081B0100081B01000834
:1000A0001B0100081B0100081B0100081B010008C0
:1000B0001B0100081B0100081B0100081B010008B0
:1000C0001B0100081B0100081B0100081B010008A0
:1000D0001B0100081B0100081B0100081B01000890
:1000E0001B0100081B0100081B010008DFF80CD0F1
:1000F00000F03AF800480047D14100089010002075
:100100000648804706480047FEE7FEE7FEE7FEE7B1
:10011000FEE7FEE7FEE7FEE7FEE7FEE7492200080E
:10012000ED000008D2B201E000F8012B491EFBD21D
:1001300070470022F6E710B513460A4604461946F2
:10014000FFF7F0FF204610BD30B5054600200346FE
:1001500000E05B1C934205D2EC5CC85C201A01D124
:10016000002CF6D130BD0000064C074D06E0E068DB
:1001700040F0010394E8070098471034AC42F6D3EE
:10018000FFF7B8FF244C0008444C000870B58C18E9
:1001900010F8015B15F0070301D110F8013B2A119B
:1001A00006D110F8012B03E010F8016B01F8016B88
:1001B0005B1EF9D12B0705D40023521E0DD401F884
:1001C000013BFAE710F8013BCB1A921C03E013F84D
:1001D000015B01F8015B521EF9D5A142D8D3002082
:1001E00070BD0000FEE7000000207047002070474F
:1001F00010B540F28C64C2F2000440F24861C2F2D1
:1002000000012046002202F01DF940F20861C2F20E
:100210000001204602F010F9002010BDB0B540F2F8
:100220008C65C2F200050C460146284602F004F92E
:10023000284602F0E3F8216840F20860C2F20000AC
:1002400002F0C0FF0020B0BD2DE9F04F83B004469E
:1002500016989C460290159813460190DDE90C070C
:100260000A46DDF85080DDE912A9DDE9101BDDE961
:100270000E65208101984FF0000EE064029884F82A
:1002800000E0A4F8500040F60640C2F61400C4F89E
:10029000520032206270A370C4F804C0E760268266
:1002A00065632187C4F83CB0A4F840A0C4F844902A
:1002B000A4F8488000F068F920463321002200F0BD
:1002C00077F8052000F060F920463321002200F085
:1002D0006FF8052000F058F920463221002200F086
:1002E00067F8052000F050F994F8521020460022DB
:1002F00000F05EF894F853102046002200F058F801
:1003000094F854102046002200F052F894F855104A
:100310002046002200F04CF820460121002200F087
:1003200047F820460221002203B0BDE8F04F00F05C
:100330003FB8000080B5017831B1102908D1012102
:10034000002200F0A7F803E00121002200F030F8BD
:100350000520BDE8804000F017B9000080B5437863
:1003600090F802E08B4290F800C098BF591E964565
:1003700098BFAEF10102D2B20CA39A5CBCF1000F9F
:1003800011440BD0BCF1100F18BF80BD41F08001AB
:10039000C9B20022BDE8804000F07CB841F0800185
:1003A000C9B20022BDE8804000F002B800401454F9
:1003B000B0B504460D4640682189002A18BF0122C5
:1003C00000F0FEF9606B218FC5F3001200F0F8F920
:1003D000E06BB4F84010C5F3401200F0F1F9606C26
:1003E000B4F84810C5F3801200F0EAF9E06CB4F8F4
:1003F0005010EA0900F0E4F9E068218A002200F0D8
:10040000DFF9012000F0C0F8E068218A012200F045
:10041000D7F9012000F0B8F8E068218A002200F046
:10042000CFF9012000F0B0F8606B218F05F00102D8
:1004300000F0C6F9E06BB4F84010C5F3400200F0DC
:10044000BFF9606CB4F84810C5F3800200F0B8F949
:10045000E06CB4F85010C5F3C00200F0B1F9E068E8
:10046000218A002200F0ACF9012000F08DF8E0684C
:10047000218A012200F0A4F9012000F085F8E0684B
:10048000218A002200F09CF90120BDE8B04000F074
:100490007BB80000B0B504460D4640682189002AAB
:1004A00018BF012200F08CF96069218B05F0010270
:1004B00000F086F9E069218CC5F3400200F080F974
:1004C000606A218DC5F3800200F07AF9E06A218E1E
:1004D000C5F3C00200F074F9606B218FC5F3001200
:1004E00000F06EF9E06BB4F84010C5F3401200F074
:1004F00067F9606CB4F84810C5F3801200F060F939
:10050000E06CB4F85010EA0900F05AF9E068218A6A
:10051000002200F055F9012000F036F8E068218A49
:10052000012200F04DF9012000F02EF8E068218A48
:10053000002200F045F90120BDE8B04000F024B8E9
:10054000B0B50A78002A08BFB0BD04464D1C07E0CC
:10055000D1B220460122FFF72BFF15F8012B52B133
:1005600020780028F4D01028F7D1D1B220460122FB
:10057000FFF790FFF1E7B0BD70470000EFF3108088
:1005800072B600BFFEE70000B0B5044600F01EF9E9
:10059000054640F28010C2F200000078611C18BFCE
:1005A000044400BF00F012F9401BA042FAD3B0BDD2
:1005B0002DE9F04F82B00E68002E00F0F88040F276
:1005C0000C4C40F2004E41F20042C4F2010CC4F265
:1005D000010EC4F201020427002401234FF0000A97
:1005E0004FF00009904208BF0327009741E0012720
:1005F00004F00C030F229A402BEA020207FA03F3DD
:100600004FEA9A051A4346F825204E68F203DEF8B1
:10061000002054BF22EA080242EA0802CEF8002075
:10062000DEF80420B30354BF22EA080242EA0802BB
:10063000CEF80420F302DEF8082054BF22EA0802B4
:1006400042EA0802B302CEF80820DCF800204FF09E
:10065000010354BF22EA080242EA0802CCF8002053
:100660000E680AF1010A36FA0AF204F1040400F0F5
:100670009E8003FA0AFB16EA0B08F1D04E684FF68B
:10068000FF72C1F21002964210DC122E50D8DFE841
:1006900006F0330A41454F4F4F4F4F4F4F4F4F4F8B
:1006A0004F4F4F484C00D1F80C9041E04FF6FF728D
:1006B000C1F2210296420FDC0022C1F211029642E1
:1006C0001AD00022C1F21202964215D00022C1F2C5
:1006D0002102964210D02BE00022C1F22202964263
:1006E0000AD00022C1F23102964205D00022C1F2A6
:1006F000320296421CD100BF8A6842B1012A14BF5F
:10070000C0F814B0C0F810B04FF0080910E04FF076
:1007100004090DE0CA6802F1080909E04FF0000978
:1007200006E0CA6802F1040902E0CA6802F10C0995
:1007300022460646B8F5807F24BF203A0436376843
:100740000F25954027EA050509FA02F22A4332608F
:10075000CA79D2067FF584AF41F21803C4F20203CE
:100760001A68AEF57E7642F001021A601A6802F04D
:1007700001020192019A2AF0030256F802B040F6F3
:100780000002C4F2010290420FD040F60042C4F2CF
:10079000010290423FF42BAF41F20002C4F2010289
:1007A000009F904208BF022722E7002720E702B0FF
:1007B000BDE8F08F8068084018BF01207047000036
:1007C000002A08BF090401617047000040F6884014
:1007D000C2F200000068704740F2801040F6884185
:1007E000C2F20000C2F2000100780A6810440860FA
:1007F0007047000080B542F20000C4F202000168B8
:1008000041F010010160032000F08EF8002000F09C
:1008100005F800F02BF8002080BD0000B0B540F2D4
:100820008012C2F2000240F21C011278C2F20001F2
:100830004FF47A730968B3FBF2F20446B1FBF2F1AC
:10084000084601F00FFA0F2C4FF001050CD858B9EB
:100850004FF0FF3021460022002500F039F840F229
:100860008410C2F2000004602846B0BD82B041F29C
:100870001800C4F202000168022241F00101016087
:10088000016801F0010101910199416841F0805135
:100890004160406800F08050009000980420C4F24D
:1008A0000100016862F31A61016002B07047000044
:1008B000002848BF704700F01F01012202FA01F131
:1008C0004EF200124009CEF2000242F820107047AA
:1008D00010B54EF60C5CCEF2000CDCF80030C3F321
:1008E000022E8EF00704042C28BF0424BEF103035B
:1008F0004FF0FF3E0EFA04F438BF0023A1439940A5
:100900000EFA03F39A43114300F1604200F00F0323
:10091000090102F56442043B6344002848BF03F127
:100920000C02117010BD00004EF60C51CEF2000109
:100930000A684FF6FF031A4060F30A2242F0806013
:1009400040F0FD700860704780B501F0070C0CEBBB
:100950008C0C00EBCC0C0CF1280C01EB810E090681
:1009600000EBCE0058BF00F5B47C4AB101208CF8F2
:100970000C00180CACF80A000020ACF8083080BD60
:1009800000208CF80C000020ACF8063080BD000080
:100990007047000001EB8102D0F8E83200EBC200A2
:1009A000C26B184601F046BF01EB8102D0F8E83275
:1009B00000EBC200D0F87C21184601F09DBF00007A
:1009C00010B5044648B2B0F1FF3F01F0070000EB5C
:1009D000800104EBC10205DD02F5B471002382F849
:1009E000693104E0012302F1280182F8293094F8EA
:1009F000A8220870012A04BF022010BD206801222D
:100A000084F8A82202F06AFD002084F8A80210BD34
:100A1000B0B50446406801F00F02824284BF012055
:100A2000B0BD48B2B0F1FF3F01F0070000EB80011C
:100A300004EBC10205DD02F5B471002382F86931CF
:100A400004E0012302F1280182F8293094F8A82259
:100A50000025012A8D70087004BF0220B0BD2068F7
:100A6000012284F8A82202F0C7FD284684F8A85283
:100A7000B0BD000001F0070101EB810100EBC100F6
:100A8000D0F884017047000070B5064648B2B0F156
:100A9000FF3F01F0070000EB800107DD06EBC1041A
:100AA00004F5B471002584F8695106E006EBC10C29
:100AB00001240CF128018CF829404D780870002D94
:100AC0000A61CB7018BFC881022B04BF00200871D7
:100AD00096F8A802012804BF022070BD30680122E8
:100AE00086F8A82202F0FCFB002086F8A80270BD60
:100AF00010B501F0070C0CEB8C0100EBC10E006887
:100B00000EF5B4710024CEF87C21CEF88031CEF8F9
:100B100084418EF869418EF868C102F0C5FD00205D
:100B200010BD0000B0B50446406801F007058542DD
:100B300084BF0120B0BD48B2B0F1FF3F09DD01EB39
:100B4000810004EBC00000F5B471002280F8692137
:100B500008E005EB850004EBC000012200F128014C
:100B600080F8292094F8A802012201288A700D70CB
:100B700004BF0220B0BD206884F8A82202F07AFDEC
:100B800025B9206804F52C7102F034FD002084F8AA
:100B9000A802B0BD80B501F0070C0CEB8C0100EB96
:100BA000C10101F828CF00684FF0010C01F11407D2
:100BB00081F824C04FF0000E87E80C400B6281F8EA
:100BC00001C002F071FD002080BD00002DE9F04F52
:100BD00085B00446006803F0D5F9000406D5206806
:100BE000B0F94410B1F1FF3F40F3BA80206803F040
:100BF000C9F9400519D52068B0F8441021F4806186
:100C0000A0F84410204600F0CFFC94F8A802012878
:100C10000BD00120002584F8A80284F82450206815
:100C2000002103F0CDF984F8A852206803F0AAF956
:100C3000400406D52068B0F8441021F48041A0F8A3
:100C40004410206803F09EF9800406D52068B0F8AF
:100C5000441021F40051A0F84410206803F092F9E8
:100C6000C00416D52068B0F8401021F00401A0F8A7
:100C70004010B0F8401021F00801A0F840102046C4
:100C800000F0A4FC2068B0F8441021F48051A0F8D2
:100C90004410206803F076F9000543D520686FF012
:100CA0000102011F01A800BF31F8043F871802327A
:100CB0000E2A7B80F8D12168B1F8402042F0010271
:100CC000A1F84020B1F8402022F00102A1F8402014
:100CD000B1F844205205FBD5B1F844206FF0010370
:100CE00022F48062A1F844200A1F00BFC7187F8841
:100CF00002330E2B22F8047FF8D1B1F8400040F007
:100D00000800A1F84000B1F8440020F40060A1F808
:100D10004400B1F8400040F00400A1F84000204633
:100D200000F092FC206803F02DF9800509D52068B9
:100D3000B0F8441021F40071A0F84410204600F0EF
:100D400049FC206803F01EF9C00506D52068B0F8FC
:100D5000441021F48071A0F8441005B0BDE8F08F74
:100D600004F52C7140F60F76009109E02046FFF75C
:100D700011FE00BF2068B0F9441000297FF536AF9E
:100D8000B0F8442012F00F090CD030F929104FEAC6
:100D9000490AB1F1FF3F1FFA81F831DD5FEA0860CF
:100DA000E8D564E10188D2066DD4314001F50041F7
:100DB0000180B0F8501094F8282001EBC20100EB3C
:100DC0004100B0F80404E16B6FF39F2060640844B5
:100DD000E06320460021FFF7DDFD94F824000028A1
:100DE000C8D0206C0028C5D194F82400216840F0B8
:100DF0008000C0B2A1F84C00002084F82400B9E7BC
:100E000030F81A1040F60F7C3140803120F81A106B
:100E100009EB890104EBC10B9BF874110BF5B47657
:100E2000002900F08F809BF86B11022940F09C8014
:100E3000B0F850203178DBF8803102EBC1075FEA6F
:100E400048420BF5C07200EB470700F1A780B7F8E6
:100E50000C7400256FF39F27DB1B38BF2B461360F4
:100E600040F2B1805FEA486200F1BD8030F8212095
:100E700048F2C00302EA0C021A4320F82120002F96
:100E800040F0B280D5E00A0540D409B2B1F1FF3F8D
:100E90003FF770AF0188314080310180B0F85010C9
:100EA00094F8682101EBC20100EB4101B1F80C3468
:100EB0006FF39F23C4F884318BB1D4F87C1171B1E6
:100EC000B4F86E2103F062F8D4F87C01D4F88411F0
:100ED0000844C4F87C0120460021FFF765FD206826
:100EE000018809053FF546AFB0F85010D4F87831C5
:100EF00000F20C42002B00F0A5813E2B00F2E181B4
:100F000003F0010707EB53039B02E9E1B0F850102F
:100F100094F8682101EBC20100EB4101B1F80C34F7
:100F2000B4F86E2100996FF39F23C4F8843103F065
:100F30002DF820680188314080310180204600F082
:100F400061FB17E7B0F85010327801EBC20100EBFB
:100F50004101B1F80C746FF39F27002F69D0DBF8C3
:100F60007C11BBF86E2161E0317848F2C00330F8A3
:100F7000212002EA0C021A4320F8212030F8212017
:100F8000B0F85030520403EBC10100EB410114D41E
:100F9000B1F80C746FF39F2737BB4AE0B7F80474BD
:100FA00000256FF39F27DB1B38BF2B46136020D92A
:100FB0005FEA48622CD4AFBB3BE0B1F804746FF336
:100FC0009F277FBB35E030F8212043F60F731A408E
:100FD0004CF28003A3F500535A4020F821205FEA29
:100FE00048627FF543AF27B3DBF87C11BBF8722171
:100FF0001CE030F8212043F60F731A404CF28003B6
:10100000A3F500535A4020F821205FEA4862D2D568
:1010100030F8212048F2C00302EA0C021A4320F8FB
:10102000212037B1DBF87C11BBF870213B4602F080
:10103000ADFFDBF88411DBE95F0239443844CBF8BB
:101040008411CBF87C011AB1DBF87801B84204D9DD
:1010500031782046FFF7A8FC03E02068314602F013
:1010600023FB40F60F765FEA08607FF583AE2068C9
:1010700009EB890130F81A2004EBC10302EA0601EA
:1010800001F5004120F81A1093F82B1003F1280BFA
:10109000002918BF03291DD1B0F850209BF800107B
:1010A0001F6C02EBC10200EB4202B2F804240025DF
:1010B0006FF39F22BF1A38BF2F461F647FF656AECC
:1010C000D96B5F6C1144D963B9185964594602F061
:1010D000EBFA4FE6022902D15FEAC851DCD5B0F83D
:1010E00050709BF800101A4652F8405F40F60F7C93
:1010F0005FEA486607EBC1073BD400F20C4939F8B8
:1011000017706FF39F27EE1B4FF0000538BF2E4678
:1011100016606BD95FEA484208D430F821204CF2BF
:10112000800602EA0C02324320F821201D4615F801
:101130004C2F40F60F76012A40F088811A4652F86B
:10114000488F52E904E652F804AC06EB070C0AEBB0
:101150000706F04542F80CCC42F8046C80F0CC80D5
:10116000B8F1000F00F01A810027C64617602F70F3
:1011700017E100F2044939F817706FF39F27EE1B4F
:101180004FF0000538BF2E46166048D95FEA484246
:1011900008D530F821204CF2800602EA0C023243D6
:1011A00020F821201A4612F84C6F012E40F60F76D7
:1011B00040F04C811D4655F848EF55E904A655F816
:1011C000048C06EB070C08EB0706D64545F80CCC5B
:1011D00045F8046C80F094804FF00008BEF1000FD9
:1011E00082F8008040F08F80BE468EE093F8292080
:1011F000012A32D0002A40F60F7640F0A480B0F8E1
:10120000503000EB01173B44B3F8047427F4F8475F
:10121000A3F80474B3F8047447F4004725E093F886
:101220002920012A33D0002A40F09C80B0F85030A9
:1012300009EB0117FE5A26F4F846FE52FE5A46F410
:10124000004629E08B5A48F2000723F4F8438B52FA
:101250008B5ACFF6FF773B4342E0B0F8503000EBBB
:1012600001173B44002740F60F76A3F80474012AC7
:1012700063D0002A67D1B0F8500009EB0112135A6D
:1012800023F4F8431352135A43F400435AE0B0F8DE
:10129000503009EB01170026012AFE525AD0002ACD
:1012A00060D1B0F8502000EB01101044B0F80C24CD
:1012B00022F4F842A0F80C24B0F80C2442F40042C6
:1012C0004EE05F09DE064FF0FF3508BF05EB531710
:1012D00048F20003CFF6FF7340F60F7643EA872308
:1012E0008B52018843F60F7211404CF28002A2F536
:1012F0008052514001803DE5A8EB0E05156050E09D
:10130000AEEB0A08D646C5F8008093F8292040F6CF
:101310000F76012A3AD0002A3ED1B0F85050BEF1E3
:10132000000F09EB01115BD0BEF13E0F68D80EF043
:10133000010202EB5E02920271E0B0F8500009EB8C
:101340000112002313522046FFF724FB5FEA4840B6
:1013500010D57BE0B0F8502000EB011010440022C3
:10136000A0F80C242046FFF715FB5FEA484040F642
:101370000F766BD520689BF800104CF2800330F894
:10138000212032401A4320F821205FE0B0F850209D
:1013900009EB011121F802E01A8E52E000222A70B6
:1013A000BE4693F8292040F60F76012A11D0002A74
:1013B00046D1B0F85070BEF1000F09EB011117D003
:1013C000BEF13E0F2ED80EF0010202EB5E02920239
:1013D00035E0B0F8502009EB011121F802E02FE0D0
:1013E0006A5A22F4F8426A526A5A42F4004216E0FB
:1013F0007A5A22F4F8427A527A5A42F400421EE0B3
:101400004FEA5E124FF0FF375FEACE6608BF07EB88
:101410005E124FF4004740F60F7647EA82226A5286
:101420001A8E0EE05FEACE654FEA5E124FF0FF358E
:1014300008BF05EB5E124FF4004545EA82227A525E
:101440005A8E1FFA8EF3614602F0C2FD20689BF8A7
:10145000001040F63F7330F821201A4048F2C003D4
:10146000103B5A4020F8212084E40000F0B585B0FC
:10147000F8B1044690F8A90228B9002084F8A8021F
:10148000204600F06DF8032084F8A902206802F0DD
:10149000A7F894E82F50D4E907678DE82050CDE9EC
:1014A000036702F019F830B1022084F8A90201257F
:1014B00052E0012550E020680021002502F07EFD69
:1014C000616859B301200023002200BF03EB8303AE
:1014D00004EBC30787F82820D3B20132FB86D3B2CE
:1014E000994287F8290087F82B50C7E90E553D64CB
:1014F000ECD800200023002203EB830304EBC30796
:1015000087F868210132D3B2994287F8690187F8D8
:101510006B01C7E95E00C7F88001EDD804F1080748
:10152000D4E9056520688CCFD4E907CECDE90076F3
:1015300002AE86E8205002F045F820B1022084F87F
:10154000A902012508E00025012084F8245084F830
:10155000A902206802F034F8284605B0F0BD00006A
:1015600080B582B0006845F60041C4F200018842AF
:101570001CBF02B080BD41F21C00C4F20200016831
:10158000002241F4000101600068002100F4000025
:10159000019001981420FFF79BF9142002B0BDE8D8
:1015A0008040FFF785B9000010B504468068022826
:1015B00018BFFEF7E3FFD4F8E802012101F0A2FA18
:1015C000D4F8E802BDE8104001F05ABAD0F8E802B9
:1015D00001F080BAD0F8E80201F086BA10B50446EE
:1015E00090F8A802012804BF022010BD012084F851
:1015F000A80284F82410206802F0E2FC002084F89D
:10160000A80210BDD0F8E82200F52C71104601F0B8
:101610008FBA000010B5044690F8A802012804BF54
:10162000022010BD2068012184F8A81202F09AFC63
:1016300020460121FFF7ACF9206801F0BFFF002030
:1016400084F8A80210BD000010B50446D0F8E802E6
:1016500001F0C2FAA069002808BF10BD4EF6105074
:10166000CEF20000016841F00601016010BD0000EB
:101670002DE9F04182B00446007841F21C06C00713
:10168000C4F202064AD0306810F0805808D13068A1
:1016900040F080503060306800F080500190019838
:1016A00047F20007C4F200073868C00512D4386852
:1016B00040F480703860FFF789F805463868C00547
:1016C00008D4FFF783F8401B6428F7D9032002B041
:1016D000BDE8F081706810F4407012D0616801F4C8
:1016E000407188420DD0706840F24042C4F24222FC
:1016F000012320F4407113600023C0071360716060
:1017000029D17068616820F440700843B8F1000F77
:10171000706003D1306820F080503060206881070D
:1017200007D556F8181CA26821F44041114346F829
:10173000181CC00603D4002002B0BDE8F08156F8A2
:10174000180CE16820F48000084346F8180C0020CB
:1017500002B0BDE8F081FFF739F8054641F288375D
:1017600070688007CDD4FFF731F8401BB8424FF0C6
:101770000300F5D9ECE700002DE9F04381B0002823
:1017800000F0858042F20008C4F202080446D8F84E
:1017900000000D4600F0070088420CD2D8F8000087
:1017A00020F007002843C8F80000D8F8000000F037
:1017B0000700A8426BD1206841F204098107C4F2F6
:1017C000020917D5410705D5D9F8001041F4E061A9
:1017D000C9F80010010705D5D9F8001041F460518F
:1017E000C9F80010D9F80010A26821F0F0011143E7
:1017F000C9F80010C00741D1D8F8000000F0070078
:10180000A8420CD9D8F8000020F007002843C8F8F7
:101810000000D8F8000000F00700A84237D1206887
:10182000410707D5D9F80010E26821F4E0611143BF
:10183000C9F80010000708D5D9F80000216920F484
:10184000605040EAC100C9F80000D9F8002002F059
:101850000C00082841F20020C0F27A004ED144F674
:10186000C833C2F38341C0F60003595CD20339D4B4
:1018700040F60010C0F23D0048433FE06068022897
:1018800009D0012829D159F8041C890307D4012063
:1018900001B0BDE8F08359F8041C8901F7D5D9F8E7
:1018A000001021F003010843C9F80000FEF78EFF85
:1018B000064641F2883700BFD9F80000616800F0A1
:1018C0000C00B0EB810F97D0FEF780FF801BB84271
:1018D000F2D9032001B0BDE8F08359F8041C890750
:1018E000D5D5DCE7D9F8002044F6B633C2F3404240
:1018F000C0F600039A5C4843B0FBF2F0D9F8001040
:1019000044F6B832C1F30311C0F60002515C40F254
:101910001C0220FA01F140F28410C2F200000068BB
:10192000C2F200021160FEF779FF002001B0BDE8AD
:10193000F08300002DE9F04182B0002800F0D7804C
:101940000446007841F20006C007C4F2020644D003
:10195000706800F00C00042817D0706800F00C00CC
:10196000082802D17068C0030FD465682DB1B5F5A1
:10197000A02F10D0B5F5803F11D0306820F4803012
:101980003060306820F480200CE03068800324D57B
:10199000606810BBABE0306840F480203060306895
:1019A00040F480303060FEF711FF002D054611D065
:1019B0003068800311D4FEF709FF401B6428F7D973
:1019C00016E100BFFEF702FF401B64284FF0030042
:1019D00000F28A8030688003F4D42078800718D51C
:1019E000706810F00C0F07D0706800F00C00082829
:1019F00027D17068C00324D43068800702D52069DD
:101A0000012874D13068616920F0F80040EAC10013
:101A10003060207800074FD5A06940B30020C4F2A1
:101A200042200121C0F88014FEF7D0FE054600BF19
:101A3000706A80072DD4FEF7C9FE401B0228F7D933
:101A4000D6E02069002840F20000C4F2422000F0F5
:101A5000A68001210160FEF7B9FE054630688007C7
:101A6000D0D4FEF7B3FE401B0228F7D9C0E0002017
:101A7000C4F242200021C0F88014FEF7A7FE0546FC
:101A8000706A800718D5FEF7A1FE401B0228F7D91F
:101A9000AEE040F21C00C2F20000006844F6D351F0
:101AA000C1F26201A0FB0101480A019000BF019848
:101AB000411E00280191F9D1207840071BD4E56927
:101AC0008DB1706800F00C00082846D1012D0ED0B1
:101AD0007068216A00F480328A4208D1616A00F499
:101AE0007010884203D1002002B0BDE8F0810120CF
:101AF00002B0BDE8F081F06910F0805808D1F069BB
:101B000040F08050F061F06900F080500090009843
:101B100047F20007C4F200073868C0050FD43868E0
:101B200040F480703860FEF751FE05463868C00505
:101B300005D4FEF74BFE401B6428F7D958E0E56852
:101B40001DB1052D3CD0012D3ED0306A20F00100A2
:101B50003062306A20F0040039E00027C4F24227E6
:101B600000203866FEF732FE022D05460CD100BF7C
:101B70003068800154D5FEF729FE401B02284FF043
:101B80000300F5D9B0E700BF30688001ABD5FEF7A0
:101B90001DFE401B02284FF00300F5D9A4E70021E9
:101BA0000160FEF713FE0546306880077FF531AF10
:101BB000FEF70CFE401B02284FF00300F4D993E718
:101BC000306A40F004003062306A40F00100306258
:101BD000FEF7FCFD002D054641F2883714D000BF0A
:101BE000306A800713D4FEF7F1FD401BB842F7D9E5
:101BF000032002B0BDE8F081FEF7E8FD401BB842CB
:101C00004FF003003FF670AF306A8007F4D4B8F1AC
:101C1000000F7FF454AFF06920F08050F0614EE780
:101C2000206AB0F5803F05D17168A26821F40031C7
:101C3000114371607168626A21F4741111430843A1
:101C4000706001203866FEF7C1FD044630688001EF
:101C50003FF549AFFEF7BAFD001B02284FF0030025
:101C6000F4D941E7411E0020B0EB116F1CBF0120E9
:101C700070474EF21002CEF2000251604EF6235130
:101C8000CEF20001F0230B700721906011607047C5
:101C900010B590F83C20012A4FF0020231D0012308
:101CA00080F83C3080F83D200268D2F804E0D2F899
:101CB00008C00C682EF07003234340F2FF74C4F296
:101CC0000004A242536005DCB2F1804F0ED040F216
:101CD000004307E042F60043C4F201039A4205D0F4
:101CE00040F60003C4F200039A4204D149682CF084
:101CF0008003194391600121002280F83D1080F893
:101D00003C20104610BD000080B586B0016840F24E
:101D10000040C4F2000081424FF00001CDE90411FF
:101D2000CDE9021101D006B080BD41F21801C4F224
:101D300002010A6800F5823042F004020A60096874
:101D400001F0040101910199802102910221039186
:101D5000059102A9FEF72CFC06B080BD2DE9F041EB
:101D600090F83C30012B04BF0220BDE8F0814FEA1F
:101D7000B2020123032A80F83C3000F2E880DFE859
:101D800002F0023A77B3036842F600471A6AC4F2D7
:101D9000010722F001021A621E6A1A465C6852F8B4
:101DA00018CF8D6826F00206BB4245EA060E06D122
:101DB000CD682EF00C0625F0040545EA060E0E68E7
:101DC000BB4205D1D1E9055724F440742C433C4370
:101DD0002CF0730737435C609F614F6809695F634C
:101DE000C3F820E09F6947F008079F619F6927F0CB
:101DF00004079F61A8E0036842F600451A6AC4F22E
:101E0000010522F010021A621C6A1A46D3F804C0B7
:101E100052F818EF8E6824F02004AB4244EA06140E
:101E200007D1CE686FF0400724F0C00407EA061619
:101E300034430E68AB4207D1D1E905872CF44065E5
:101E400047EA080745EA870C2EF4E64747EA0627E3
:101E5000C3F804C09F614F6809699F631C629F6952
:101E600047F400679F619F6927F480679F616AE07C
:101E7000036842F600451A6AC4F2010522F4807232
:101E80001A621C6A1A46D3F804C052F81CEF8E6816
:101E900024F40074AB4244EA062407D1CE6840F231
:101EA000FF47360224F44064BE4334430E68AB421D
:101EB00007D1D1E905872CF4405547EA080745EAE0
:101EC000071C2EF073073743C3F804C0DF614F6867
:101ED0000969DF631C62DF6947F00807DF61DF69BA
:101EE00027F00407DF612FE0036842F600471A6A13
:101EF000C4F2010722F480521A621A46D3F820C0B5
:101F00005D6852F81C4FD1F800E08E68BB4204D1E6
:101F10004F6925F4804545EA87152CF4005747EAB8
:101F2000063724F4E64646EA0E265D60DE614E681A
:101F300009691E641F62DF6947F40067DF61DF69BA
:101F400027F48067DF6109021368194311600021DB
:101F500080F83C100846BDE8F0810000002804BF6E
:101F60000120704710B5044690F83D0028B90020C4
:101F700084F83C00204600F05DF8022084F83D0023
:101F8000206840F2FF730268C4F2000342F6004C7E
:101F90009842C4F2010C05DCB0F1804F0AD040F247
:101FA000004103E0604505D040F60001C4F20001A5
:101FB000884203D1A16822F070020A43984205DCEE
:101FC000B0F1804F0AD040F2004103E0604505D0F7
:101FD00040F60001C4F20001884203D1216922F4D5
:101FE00040720A43A36922F08001D4F804E0E26859
:101FF000194360450160C262C0F828E002D16169FE
:10200000CCF8301001214161002084F8461084F89A
:102010003E1084F83F1084F8401084F8411084F892
:10202000421084F8431084F8441084F8451084F872
:102030003D1010BD81B0006840F20041C4F20001C3
:10204000884201D001B0704741F21C00C4F2020086
:10205000016841F002010160006800F00200009098
:10206000009801B07047000041B1082909D0042947
:1020700014BF00F1410200F13F0204E000F13E0212
:1020800001E000F140021278012A1CBF01207047D4
:10209000022241B1082909D0042914BF80F8412047
:1020A00080F83F2004E080F83E2001E080F84020E6
:1020B000006801F01F010122036A8A4023EA02013D
:1020C0000162036A42F64441C4F201011A43A1F1DC
:1020D00044039842026203D10A6842F400420A6053
:1020E00040F2FF71C4F20001884205DCB0F1804F7C
:1020F0000ED040F2004107E042F60041C4F2010177
:10210000884205D040F60001C4F20001884206D1A1
:10211000816801F00701062904BF002070470168AB
:1021200041F001010160002070470000FEE700005F
:1021300080B540F28C6040F20001C2F20000C2F2B1
:102140000001002200F03AFB002818BFFEF716FA43
:1021500040F28C6040F22001C2F20000C2F20001A5
:1021600000F062FD002818BFFEF708FA40F28C600C
:1021700040F24411C2F20000C2F2000100F054F932
:10218000002818BFFEF7FAF940F28C60C2F2000096
:1021900000F060FD002808BF80BDBDE88040FEF76C
:1021A000EDB90000FEE70000FEE700007047000008
:1021B00070470000FEF710BB70B594B00AAC204623
:1021C0002821FDF7B6FF01200A900E904FF4E01091
:1021D00000254FF480310226139020460995CDE961
:1021E0000755CDE90555CDE90355CDE90155CDE9B3
:1021F0000B15CDE91161FFF79DFB20B1EFF31080C6
:1022000072B600BFFEE70F20CDE905064FF48060EF
:10221000CDE9080505A802210795FFF7ADFA20B121
:10222000EFF3108072B600BFFEE71020019000208F
:10223000049001A8FFF71CFA18B1EFF3108072B6F2
:10224000FEE714B070BD00007047000010B5D0F874
:10225000B822C2B101EB810300EB830E5EF81C4F84
:1022600064B1D0F8C0C201EB81030CEBC303D3F817
:1022700038C0B4FBFCF303FB1C4333B100242046FD
:10228000C2F8144210BD022010BD00240022002319
:10229000CEF8004000F0AAFC204610BDB0B5D0F842
:1022A000B852044600F06CFBD4F8B812C5F80C0222
:1022B00049B1D4F8BC0205F50371C268D5F804022F
:1022C00090470020B0BD0220B0BD0000B0B5812114
:1022D000044600F09DFA002520460121E56200F049
:1022E00097FA20468221C4F86C5100F091FAD4F894
:1022F000B802256448B1D4F8BC0240688047D4F8DD
:10230000B80200F057FFC4F8B8520020B0BD00007A
:1023100010B5D0F8BC1269B1D0F8B84294F80002F8
:10232000FF2807D08B6894F8012221469847FF20A8
:1023300084F80002002010BD014640F2E0000A22AD
:10234000C2F200000A807047014640F25800432262
:10235000C2F200000A807047014640F29C0043220E
:10236000C2F200000A807047014640F2EC004322AE
:10237000C2F200000A807047F0B581B00546007CCB
:102380004027002808BF4FF4007728468121022209
:102390003B46402400F04EFB012628460121022244
:1023A0003B46EE6200F046FB2846822103220823CA
:1023B000C5F86C6100F03EFB4FF407702E6400F02E
:1023C000FBFEC5F8B802A8B10746D5F8BC02006804
:1023D00080470026C7F81462C7F81862287CD7F82F
:1023E0000422002808BF4FF4007428460121234628
:1023F00000F034FB304601B0F0BD000080B5D0F8ED
:10240000B81271B190F810C0D1F804224023012114
:10241000BCF1000F08BF4FF4007300F01FFB002059
:1024200080BD022080BD000000290EBF0220C0F840
:10243000BC12002070470000D0F8B8220020C2F87B
:1024400004127047D0F8B8320020C3F80812C3F85D
:102450001022704770B582B00446D0F8B86291F986
:1024600000000D46002210F060018DF80720ADF845
:10247000042011D0202920D1EA8822B3B0F1FF3FF7
:102480003CDD6878314686F80002204686F8012255
:1024900000F080F8002455E068780B281CD00A284A
:1024A00020D0C0BB94F89C0203283AD101A9204651
:1024B000022200F089F8002444E02046294600F07A
:1024C0005DF802243EE0D4F8BC02294683686878AF
:1024D00000220024984735E094F89C02032826D176
:1024E00000242FE094F89C02032826D10DF1070167
:1024F0002046012200F068F8002423E0D4F8BC0252
:102500003146836868789847EA882046314600F06B
:102510005BF8002416E02046294600F02FF802243C
:1025200010E02046294600F029F802240AE020465F
:10253000294600F023F8022404E02046294600F052
:102540001DF80224204602B070BD000080B5D0F80E
:10255000B42252689047002080BD000080B5134629
:102560000A46002100F07AFA002080BD80B51346AB
:102570000A46002100F03AFB002080BD10B5802102
:10258000044600F005FB20460021BDE8104000F0A5
:10259000FFBA000080B513460A460321C0F8941222
:1025A0000021C0E9573300F059FA002080BD000037
:1025B00080B50521C0F8941200210022002300F00C
:1025C0004DFA002080BD000080B513460A46022166
:1025D000C0F894120021C0E9073300F007FB002087
:1025E00080BD000080B50421C0F8941200210022B3
:1025F000002300F0FBFA002080BD000010B540F27F
:10260000E814C2F200040A4602A0214600F09EF837
:10261000204610BD43444320436F6E666967000047
:1026200040F230101222C2F200000A80704700000F
:1026300010B540F2E814C2F200040A4602A0214696
:1026400000F084F8204610BD43444320496E746571
:10265000726661636500000040F254100422C2F209
:1026600000000A807047000010B540F2E814C2F282
:1026700000040A4602A0214600F068F8204610BD7A
:1026800053544D6963726F656C656374726F6E69E4
:102690006373000010B540F2E814C2F200040A4669
:1026A00002A0214600F052F8204610BD53544D338D
:1026B00032205669727475616C20436F6D506F7271
:1026C0007400000070B54FF2E870C1F6FF70026848
:1026D00083684FF01A0CD218A1F800C031D04068BE
:1026E00040F2581C6FF00101C2F2000C4FF0370E9F
:1026F000002300BF0CEB01050EEB1276B2F1204F68
:1027000001F102014FEA127438BF04F130061201E0
:102710000E292E716B71EDD10CF1100104224FF0D6
:10272000370C00230CEB1075B0F1204F4FEA1076F8
:1027300038BF06F1300501F8025F0001013A4B7025
:10274000F0D140F25810C2F2000070BD10B5A0B335
:1027500003786BB1431E4FF0000C00BF93F802E00A
:102760000CF1010CBEF1000F03F10103F6D101E001
:102770004FF0000C5FFA8CFC022303EB4C03138038
:1027800003220B704A7090F800E0BEF1000F08BF02
:1027900010BD013802234FF0000C00BFDAB242F046
:1027A000010401F802E001F804C090F802E00233ED
:1027B000BEF1000F00F10100F0D110BD002804BFF0
:1027C0000220704780B5D0F8B432002B1CBF002324
:1027D000C0F8B432002918BFC0F8B012012180F847
:1027E0009C12027000F0D0F8002080BD80B5D0F8B7
:1027F000C002FEF70DF940F200220223C100C0F230
:102800000122042838BF22FA01F3D8B280BD0000AB
:1028100080B5D0F8C002FEF7D3F840F200220223C0
:10282000C100C0F20122042838BF22FA01F3D8B255
:1028300080BD0000B0B5044669B1D4F8B402426965
:102840003AB194F89C02032803D120469047002017
:1028500050E00220B0BDD4F89402002818BF04282C
:1028600004D12046802100F093F93AE0022838D1C3
:10287000D4E90810814208D9081A83B220622046A0
:1028800011461A46FFF772FE13E0E169814217D341
:10289000B1FBF0F202FB101090B9D4F8980281421B
:1028A0000ED22046002100220025FFF75FFEC4F86B
:1028B0009852204600210022002300F0CFF810E0BB
:1028C000D4F8B402C16829B194F89C02032801D15C
:1028D000204688472046802100F05AF92046FFF71D
:1028E00067FE94F8A00201284FF0000004BF84F8AE
:1028F000A002B0BDB0BD0000B0B5044669B1D4F8C7
:10290000B40282693AB194F89C02032803D12046AC
:10291000904700251AE00220B0BDD4F894020025AB
:10292000052815D0032811D1D4E95810814217D9B0
:10293000091AC4F86011814238BF084683B22046A4
:1029400011461A46FFF70AFE0020B0BD2846B0BD6A
:1029500020460021C4F8945200F01AF92846B0BD70
:10296000D4F8B402016929B194F89C02032801D17A
:10297000204688472046FFF735FE0020B0BD000006
:10298000D0F8C002FEF776B810B5044640F65010F5
:1029900045F60041C2F20000C4F200010822022301
:1029A00080E80E000021C0F8E842C4F8C002C0E987
:1029B00006110162FEF75AFD002818BFFDF7DEFD83
:1029C000D4F8C002002100221823FDF7BDFFD4F87F
:1029D000C002802100225823FDF7B6FFD4F8C002C0
:1029E00081210022C023FDF7AFFFD4F8C0020121EE
:1029F00000224FF48873FDF7A7FFD4F8C0028221AC
:102A000000224FF48073FDF79FFF002010BD0000EF
:102A10004AB2D0F8C00201F07F0101EB810100EB66
:102A2000C10000F5B571002A48BF00F12A010878FD
:102A30007047000080B59446D0F8C0021A4663463D
:102A4000FEF722F840F200220223C100C0F2012268
:102A5000042838BF22FA01F3D8B280BD80B5D0F87F
:102A6000C002FEF745F840F200220223C100C0F286
:102A70000122042838BF22FA01F3D8B280BD000039
:102A8000F0B581B0002100224023044600254026F5
:102A9000FFF7D0FF01272046802100224023C4F801
:102AA0005871C4F86461FFF7C5FFD4F8B802A76194
:102AB000666284F89C72C4F894526560C4F8A452AB
:102AC00028B1D4F8B4020021426820469047002083
:102AD00001B0F0BD90F89C12042904BF90F89D123B
:102AE00080F89C120020704780B590F89C12032952
:102AF00005D1D0F8B412C969002918BF8847002051
:102B000080BD0000024600201174704780B5D0F8E7
:102B1000C002FEF763FD40F200220223C100C0F2B2
:102B20000122042838BF22FA01F3D8B280BD000088
:102B3000B0B500F52A750446284600F069F894F807
:102B4000A8020121B4F8AE22C4F8941200F01F01CB
:102B50000229C4F8982208D001290CD089B920464E
:102B6000294600F07DF80020B0BD2046294600F03F
:102B700049FA0020B0BD2046294600F0E1FA0020C5
:102B8000B0BD00F08001204600F002F80020B0BD8A
:102B900080B5D0F8C002FDF7C5FF40F20022022345
:102BA000C100C0F20122042838BF22FA01F3D8B2D2
:102BB00080BD000080B5D0F8C002FEF72BFD40F2CA
:102BC00000220223C100C0F20122042838BF22FAE9
:102BD00001F3D8B280BD0000014690F89C020422A7
:102BE00081F89D02002081F89C22704780B5D0F8C2
:102BF000C002FDF7CFFF40F200220223C100C0F265
:102C00000122042838BF22FA01F3D8B280BD0000A7
:102C10000A7802704A7842704A8842808A888280A4
:102C2000C988C1807047000000290EBF0220C0F88B
:102C3000B41200207047000080B5D0F8B42232B141
:102C400012689047002818BF0120400080BD022074
:102C500080BD000080B5FFF7ADFF002080BD000003
:102C600070B582B00D460978044611F060010AD0B3
:102C7000402901D0202928D1D4F8B40229468268FD
:102C80002046904729E06878092839D8DFE800F025
:102C900005283841386F84384B5D94F89C02013820
:102CA000022800F29A80E888022840F0CD80D4F80B
:102CB000A4020322002808BF0122214641F80C2F5C
:102CC00020460222FFF780FC07E020468021FFF724
:102CD0005FFF20460021FFF75BFF002002B070BDC0
:102CE00094F89C020138022800F28080688801284C
:102CF000F3D10020C4F8A4022046FFF773FCECE7F0
:102D000020468021FFF744FF20460021FFF740FFC7
:102D1000E3E768880128E0D10120C4F8A402204636
:102D2000FFF760FCD9E7E888012868D194F89C0295
:102D3000411E022980F091800020214641F8080FB1
:102D400020460122FFF740FCC7E7688840F2E415FF
:102D5000C1B2C2F200050229287059D32046802151
:102D6000FFF716FF20460021FFF712FFB5E7A888FE
:102D700050BBE88840BB68887F2825D894F89C120F
:102D8000032940F0EA8020468021FFF701FF20461A
:102D90000021FFF7FDFEA0E768884FF0FF3101EB4F
:102DA000102100220629ADF8062000F20381DFE899
:102DB00011F0070072005C00010101017F00890031
:102DC000D4F8B0020268EEE020468021FFF7E0FE72
:102DD00020460021FFF7DCFE7FE720468021FFF739
:102DE000D7FE20460021FFF7D3FE76E7204680215C
:102DF000FFF7CEFE20460021FFF7CAFE6DE7204612
:102E00008021FFF7C5FE20460021FFF7C1FE64E7E1
:102E100094F89C02032835D0022861D1002900F0E3
:102E20007580032084F89C0220466160FFF704FF50
:102E3000022840F07A8020468021FFF7A9FE204634
:102E40000021FFF7A5FE48E720468021FFF7A0FEFE
:102E500020460021FFF79CFE3FE703284DD1211DAE
:102E600020460122FFF7B0FB37E7C0B2052800F289
:102E7000A180DFE800F00384888C9094D4F8B0023D
:102E800042688FE0002945D06068012851D1204672
:102E9000FFF7A8FB21E7217CD4F8B40200290CBF7E
:102EA000816AC16A0DF1060088470646022014E0D7
:102EB000207C00287ED1D4F8B402416B0DF10600CD
:102EC000884774E0207C002874D1D4F8B402016BE8
:102ED0000DF106008847064607207070012073E058
:102EE00020468021FFF754FE20460021FFF750FEC8
:102EF00029782046FFF72AFBEFE620468021FFF7DE
:102F000047FE20460021FFF743FEE6E62046FFF796
:102F100069FBE2E6022084F89C0220466160FFF72C
:102F200015FB2046FFF75EFBD7E62046FFF75AFB6E
:102F3000D3E6C1B22046FFF709FB2978204661603D
:102F4000FFF77AFE022858D120468021FFF720FEA5
:102F500020460021FFF71CFEBFE600F07F0520465B
:102F6000294684F89E52FFF7D1FD2046FFF73AFB31
:102F7000002D0CBF0120022084F89C02ADE6D4F89D
:102F8000B00282680EE0D4F8B002C2680AE0D4F859
:102F9000B002026906E0D4F8B002426902E0D4F857
:102FA000B002826932B1207C0DF1060190470646DD
:102FB000012009E020468021FFF7EAFD204600219C
:102FC0000026FFF7E5FD002000283FF486AEBDF89F
:102FD000060050B1EA8842B1904238BF024620460E
:102FE0003146ADF80620FFF7EFFAE88800287FF4B5
:102FF00074AE2046FFF7F6FA6FE62046FFF7F2FAC6
:103000006BE60000B0B50A460978044611F060018D
:103010000BD0402901D020291FD1D4F8B402114689
:103020008368204698470020B0BD50781179F0B1F0
:10303000012836D0032863D194F89C02032834D1A8
:10304000508800286ED111F07F006BD0D088002806
:1030500068D12046FFF79CFD64E020468021FFF701
:1030600097FD20460021FFF793FD0020B0BD94F8A6
:103070009C02032823D0022808BF5FEA41603FD1A9
:1030800001F07F0000EB800004EB800000F11402EF
:10309000090658BF00F5AA720020106020461146AC
:1030A00049E094F89C02032834D0022828D148062D
:1030B00026D02046FFF76CFD2046802126E001F057
:1030C0000F0000EB8000802904EB80002CBF80699A
:1030D000D0F85801A0B101F07F0000EB800004EBB4
:1030E000800000F11405802938BF00F5AA75480654
:1030F0001DD02046FFF78CFC002818BF012017E0E8
:1031000020468021FFF744FD20460021FFF740FDC7
:103110000020B0BD50880028A7D1480602D0204624
:10312000FFF764FB2046FFF75DFA0020B0BD0020EA
:103130002860204629460222FFF746FA0020B0BD4B
:10314000B0B50D460978044611F0600118BF40295A
:1031500012D194F89C020138022803D8A88810F0F4
:10316000FE0F14D020468021FFF712FD20460021DB
:10317000FFF70EFD0020B0BD2029EAD020468021B7
:10318000FFF706FD20460021FFF702FD0AE0D4F814
:10319000B4022946826820469047E988002908BF82
:1031A000002801D00020B0BD2046FFF71BFA002008
:1031B000B0BD00007047000040F2E830C2F20000ED
:1031C0007047000070B50C463CA122460546FCF74E
:1031D000BBFF40F28A16C2F2000630B940F28B11F2
:1031E0000120C2F200013070087035A12846224645
:1031F000FCF7AAFF38B90020307040F28860C2F2B4
:103200000000022101703078012855D12DA12846F7
:103210002246FCF799FF28B940F28910C2F200005B
:103220000021017028A128462246FCF78DFF28B90D
:1032300040F28910C2F200000121017023A128464A
:103240002246FCF781FF28B940F28910C2F2000043
:10325000022101701EA128462246FCF775FF28B9FD
:1032600040F28810C2F200000021017019A1284626
:103270002246FCF769FF28B940F28810C2F200002C
:103280000121017014A128462246FCF75DFF28B9F0
:1032900040F28810C2F20000022101700FA12846FE
:1032A0002246FCF751FF002818BF70BD40F288107D
:1032B000C2F200000321017070BD00BF6300000076
:1032C0006400000031000000320000003300000004
:1032D0003400000035000000360000003700000018
:1032E000F0B50C78024691F803E000EB840730F863
:1032F000240047F27063BEF1030F20EA030307D8EE
:103300000020DFE80EF002070D0A43F4007306E028
:10331000012005E043F4806301E043F4C063002032
:1033200048F28006CFF6FF7633433B803B8840F679
:103330000F752B40234333433B800B7B48F2800CBB
:10334000002B44D03B8840F60F652B400CF5807570
:103350002B433B80B2F850300D8902EB0414234418
:1033600025F00105A3F80054B2F850204B892244FF
:1033700023F00103A2F8083449783A88002902F4BE
:10338000804146D039B1398840F60F7211400CF5B2
:103390008042114339803988490607D5398840F67B
:1033A0000F7211400CF1400211433980398840F608
:1033B0003F7211400CF120024A40BEF1010F08BFDC
:1033C00041EA0C023A80398843F60F7240E04D78AA
:1033D000B2F850302601CC8824F00104EDB39119E5
:1033E0001944A1F800443988490607D5398840F6C0
:1033F0000F7211400CF1400211433980398840F6B8
:103400003F72BEF1010F01EA020122D00CF120024D
:103410005FE039B1398840F60F7211400CF58042F7
:10342000114339803988490607D5398840F60F722B
:1034300011400CF1400211433980398843F60F7274
:1034400011400CF5405251403980398840F63F72A6
:10345000114041EA0C013980F0BD16443344A3F811
:103460000844B2F850200B6906F20C413BB13E2BE8
:1034700010D803F0010606EB53039B0217E0535AE2
:1034800048F2000623F4F8435352535ACFF6FF761E
:1034900033430CE05E094FF0FF35DC0608BF05EB57
:1034A000531648F20003CFF6FF7343EA86235352C4
:1034B0003988490407D5398840F60F7211400CF558
:1034C000804211433980398843F60F7211400CF560
:1034D000405251403980F0BD00207047B0B50C78A3
:1034E0004B78097B024630F824004CF2800C4CF2F9
:1034F000800500294FEA44013AD0002B00F48040B7
:1035000040D040B132F8110040F60F73184040EA45
:103510000C0022F8110032F8110043F60F7E40062D
:1035200040F63F7009D532F8113040F60F74234051
:10353000ACF57F54234322F8113032F8113040F6B5
:103540000F7423402B43ACF5804522F8113032F83C
:1035500011301840284322F8110032F81100ACF560
:10356000804300EA0E000343002022F81130B0BD72
:10357000EBB1400640F63F7EEFD5ACF57F5540F607
:103580000F70E4E740B132F8110040F60F731840B5
:1035900040EA0C0022F8110032F81100ACF57F551A
:1035A000400640F63F7E43F60F70BCD4C5E74004AA
:1035B00043F60F7ED1D540F60F70C8E70020704764
:1035C0000020704701460120A1F8400000220020A1
:1035D000A1F84020A1F84420A1F850207047000035
:1035E0000146B0F8400044F2FF0202400020A1F87A
:1035F000402070470020704780B50A7B0AB1002048
:1036000080BD0A784B7830F822C04FEA4202B3B14D
:103610005FEA4C6348F2A00E0BD530F812C040F6BA
:103620000F730CEA030C0EF1200343EA0C0320F89D
:103630001230C9780129E2D040F63F7110E05FEA0C
:103640004C414BF2800E09D530F8121040F60F7342
:1036500019400EF58053194320F8121043F60F71EC
:1036600030F81230194081EA0E0120F812100020C3
:1036700080BD000002460B78487832F823C040F63F
:103680003F71002848F2900008BF43F60F71CFF653
:10369000FF7008BF00F57F6001EA0C014140002087
:1036A00022F82310704700002DE9F04F4B78012BD2
:1036B00045D18A69D1F810E00F7B724528BF724668
:1036C000002F5CD0CF78022F40F0958091F800A0B9
:1036D0000C6A30F82A7040F60F654FEA4A067445C6
:1036E00007EA050740F2DC8048F2B005CFF6FF7527
:1036F000D0352F43A4EB020920F81670C1F82090B2
:1037000030F8167048F2B00C7F0600F12C81012BC6
:1037100000F06781002B40F03F83B0F8506000EB71
:103720000A14002A04F2044700F01A833E2A00F229
:10373000278302F0010404EB5204A4022BE30A7B6A
:10374000EAB3CA78012A00F08880022A40F0A580F6
:10375000002B40F06C81B0F850600A780F69064485
:103760001201002F06F2044600F030813E2F00F2D5
:10377000508107F0010505EB5707BF0256E113041E
:1037800010D0CB884F6900EB430693B201335B083E
:10379000023F06F57F7600BF37F8025F013B26F84F
:1037A000045FF9D1B0F850300F78034403EB0713EE
:1037B00048F2B00CA3F8042440F63F72C8E08A69CE
:1037C0000E69931B3CBF002316468B61B0F8507006
:1037D0000B78074448F2B0021B01002E07F20C4799
:1037E00000F09C803E2E00F2A18006F0010505EB62
:1037F0005606B602A5E091F8008040F60F6630F854
:10380000287048F2B00C374048F2B006CFF6FF7689
:103810003743D03720F828700F6AA7EB020BC1F8A6
:1038200020B030F828707F0661D4012B00F0BE80F4
:10383000002B40F0BA81B0F8506000EB0814002A69
:1038400004F2044700F095813E2A00F2A28102F0C2
:10385000010404EB5204A402A6E10A698F69BE1AAE
:103860003CBF00263A46012B8E6100F09380002B6E
:1038700040F01081B0F850700E7807443601002AED
:1038800007F2044700F0B5803E2A00F2F78002F00C
:10389000010505EB5205AD02FBE00120BDE8F08F0C
:1038A00048F2B002CFF6FF72303A3A4320F81620C1
:1038B000B0F8502000EB0A1348F2B00C1A4423046D
:1038C000A2F804446FD00A894B6900EB4207A2B208
:1038D00001325208023B07F57F7700BF33F8026FD1
:1038E000013A27F8046FF9D140F63F7230E0012B1E
:1038F00064D0002B40F0A681B0F8506000EB0815B2
:10390000002A05F20C4700F03C813E2A00F28D812E
:1039100002F0010505EB5205AD0292E1DE5B26F4F3
:10392000F846DE53DE5B46F400460AE075094FF0C8
:10393000FF3CF40608BF0CEB56154FF4004646EA70
:103940008526DE5342F6D07302EB030C43F60F726A
:10395000097830F821301A4082EA0C0220F8212040
:103960000020BDE8F08F012B4BD0002B40F065828A
:10397000B0F8506000EB0A14002A04F20C4700F083
:10398000F7813E2A00F24D8202F0010404EB52045A
:10399000A40251E2B0F850700E78074407EB061706
:1039A000A7F8042476E040F63F72D1E7B0F8504023
:1039B00000EB08152C44A4F80424F6E0B0F85050AD
:1039C00000EB08163544A5F80C243BE1975B48F260
:1039D000000527F4F8479753975BCFF6FF752F4301
:1039E00024E0B0F8504000EB0A152C44A4F804245D
:1039F000D2E1F55B25F4F845F553F55B45F4004558
:103A000047E0B0F8504000EB0A152C44A4F80C2411
:103A100013E27D094FF0FF3CFC0608BF0CEB571585
:103A200048F20007CFF6FF7747EA85279753012B27
:103A300012D0002B69D1B0F850300A780F690344D6
:103A4000120103F20C438FB13E2F52D807F001064A
:103A500006EB5707BF0257E0B0F850200B7802443E
:103A60000F6902EB0312A2F80C744EE0D75A27F448
:103A7000F847D752D75A47F4004745E05509D406CE
:103A80004FF0FF3C08BF0CEB52154FF4004444EAE2
:103A90008525F55348F2B006012B42F6D07710D0B9
:103AA000D3B9B0F850700B7807441B0107F20C47EC
:103AB000BAB13E2A4CD802F0010505EB520292023F
:103AC00051E0B0F850300D78034403EB051306EBDA
:103AD000070CA3F80C2439E7A7F5E042A2F5756CB2
:103AE00034E7DA5B22F4F842DA53DA5B42F400425C
:103AF00039E07E094FF0FF35FC0608BF05EB57168D
:103B00004FF4004747EA8627D752CA6942F6D07376
:103B1000CAB10F7844F2400530F8272002EA0506C2
:103B2000AE4248F2B00218BF002E7FF40DAF7B000A
:103B300030F8137040F60F76374002F11006374325
:103B400020F81370FEE6A3F5E042A2F5756CFDE6E1
:103B500055094FF0FF3CD40608BF0CEB52154FF44B
:103B6000004242EA8522DA5342F6D07206EB020C9A
:103B7000ECE6F45B24F4F844F453F45B44F40044BE
:103B800012E0F55B25F4F845F553F55B45F4004587
:103B900057E05409D5064FF0FF3908BF09EB52141E
:103BA0004FF4004545EA8424F453D1F814901404EA
:103BB00010D00C8995B200EB440401356F08A9F1CF
:103BC000020504F57F7600BF35F8024F013F26F865
:103BD000044FF9D109EB02060024F3454E6184BF7E
:103BE000ABEB02049346BBF1000F0C6212D0012B29
:103BF00013D0002B73D1B0F8502000EB0813BBF1A9
:103C00003E0F03F20C435CD80BF0010707EB5B0798
:103C1000BF0263E040F63F729AE6B0F8502000EB36
:103C200008131A44A2F80CB459E0D5064FEA521A08
:103C30004FF400454FF0FF3908BF09EB521A45EA2F
:103C40008A25F553D1F8149015040FD04D8900EB57
:103C5000450695B201356F08A9F1020506F57F7694
:103C600035F8024F013F26F8044FF9D109EB02065F
:103C70000024F3454E6184BFABEB02049346BBF1D5
:103C8000000F0C6212D0012B13D0002B4ED1B0F8D4
:103C9000502000EB0813BBF13E0F03F2044337D86A
:103CA0000BF0010707EB5B07BF023EE040F63F72F7
:103CB0004EE6B0F8502000EB08131A44A2F804B402
:103CC00034E04FEA5B174FF0FF355FEACB6408BF83
:103CD00005EB5B174FF4004545EA8727D7525FEAAB
:103CE0000B4212D04A89B31E00EB42071FFA8BF237
:103CF0000132520807F57F7733F8026F013A27F84F
:103D0000046FF9D140F63F7222E640F63F721FE69B
:103D10004FEA5B174FF0FF355FEACB6408BF05EB56
:103D20005B174FF4004545EA8727D7525FEA0B42FD
:103D300013D00A89B31E00EB42071FFA8BF201323F
:103D4000520807F57F7700BF33F8026F013A27F872
:103D5000046FF9D140F63F72FAE540F63F72F7E59D
:103D6000F45B24F4F844F453F45B44F4004412E0AC
:103D7000F45B24F4F844F453F45B44F400445BE053
:103D80005409D5064FF0FF3808BF08EB52144FF422
:103D9000004545EA8424F453D1F8148014040FD06C
:103DA0000C8995B200EB440401356F08A8F10206B6
:103DB00004F57F7436F8025F013F24F8045FF9D1FF
:103DC00008EB02060024F1454E6184BFA9EB020412
:103DD0009146012B0C6214D0002B40F08180B0F88A
:103DE000502000EB0A13B9F1000F03F20C4310D07E
:103DF000B9F13E0F66D809F0010707EB5907BF027A
:103E00006DE0B0F8502000EB0A131A44A2F80C94AD
:103E100066E0D75A27F4F847D752D75A47F40047F5
:103E20005DE05409D5064FF0FF3808BF08EB521487
:103E30004FF4004545EA8424F453D1F81480140467
:103E400010D04C8995B200EB440401356F08A8F1FD
:103E5000020604F57F7400BF36F8025F013F24F8C4
:103E6000045FF9D108EB02060024F1454E6184BFDE
:103E7000A9EB02049146012B0C6213D0002B57D101
:103E8000B0F8502000EB0A13B9F1000F03F204431D
:103E900010D0B9F13E0F3DD809F0010707EB5907E3
:103EA000BF0244E0B0F8502000EB0A131A44A2F815
:103EB00004943DE0D75A27F4F847D752D75A47F42D
:103EC000004734E04FEA59174FF0FF355FEAC96405
:103ED00008BF05EB59174FF4004545EA8727D7522D
:103EE0005FEA094213D04A891FFA89F300EB4202C4
:103EF00001335B08B71E02F57F7600BF37F8022F4B
:103F0000013B26F8042F40F63F72F7D120E540F63A
:103F10003F721DE54FEA59174FF0FF355FEAC9645C
:103F200008BF05EB59174FF4004545EA8727D752DC
:103F30005FEA094213D00A891FFA89F300EB4202B3
:103F400001335B08B71E02F57F7600BF37F8022FFA
:103F5000013B26F8042F40F63F72F7D1F8E440F613
:103F60003F72F5E401460020A1F844004FF43F42BF
:103F70000020A1F84020704740F65010C2F2000027
:103F8000FCF724BEB0F844007047000000EB42008C
:103F9000022B00F580620BD358080239043A00BFA7
:103FA00032F804CF013821F802CFF9D102310432BE
:103FB000D8071CBF108808707047000000207047A9
:103FC000002904BF8021A0F84C1000207047000099
:103FD000002B08BF704700EB4202581C4008023912
:103FE00002F57F7231F8023F013822F8043FF9D11F
:103FF00070470000FEE700002DE9F04140F28C1808
:10400000C2F200084046002100220026FCF7A6F973
:1040100031A14046FCF794FA404603210122FCF707
:104020009DF944F6FA31C0F600014046FCF788FAE3
:1040300040460B210122FCF791F944F6F631C0F617
:1040400000014046FCF77CFA404603210222FCF7BF
:1040500085F944F60041C0F600014046FCF770FACD
:1040600040460B210222FCF779F91FA14046FCF7DC
:1040700067FA40F28860C2F20000007840F27214E1
:1040800044F6F2350427C2F20004C0F60005002809
:1040900008BF032704EB460014F816104278404688
:1040A000FCF75CF940462946FCF74AFA0136B7426C
:1040B000F0D12178627840F28C14C2F200042046DC
:1040C000FCF74CF944F6F431C0F600012046BDE897
:1040D000F041FCF735BA00BF537769746368207309
:1040E00069676E616C0000004E6F74207573650027
:1040F0002DE9F04140F28C18C2F200084046002140
:1041000000220026FCF72AF92DA14046FCF718FAF8
:10411000404603210122FCF721F944F60441C0F690
:1041200000014046FCF70CFA404603210222FCF74E
:1041300015F944F60741C0F600014046FCF700FAC5
:10414000404603210322FCF709F944F60B41C0F66F
:1041500000014046FCF7F4F940F28860C2F200002A
:10416000007840F27A1444F6F2350427C2F20004D3
:10417000C0F60005002808BF032700BF04EB460077
:1041800014F8161042784046FCF7E8F840462946F5
:10419000FCF7D6F90136B742F0D12178627840F2C7
:1041A0008C14C2F200042046FCF7D8F844F6F4312F
:1041B000C0F600012046BDE8F041FCF7C1B900BFE0
:1041C00053656C65637420566F6C7461676500009D
:1041D00096B040F6004BC4F2010BFCF70BFBFDF769
:1041E000EBFF002741F21800CDE90F77CDE90D77FD
:1041F000C4F2020001680BF5806941F01001016012
:104200000168002201F010011491149901684FF423
:10421000404441F020010160016801F02001149147
:104220001499016841F004010160016801F0040182
:1042300014911499016841F00801016000684FF47D
:10424000404100F00800149014984846FCF7B8FA72
:10425000ABF5806840467E2100227E25FCF7B0FA4F
:1042600058464FF2C0010022FCF7AAFA0DAE0D9499
:1042700001244FF0020A48463146CDE90E47CDF8F9
:1042800040A0FCF795F940463146CDE90D54CDE903
:104290000F7AFCF78DF94FF2C0000DA981E8910467
:1042A00058463146FCF784F94FF4E060CDE90D073C
:1042B000404631460F97FCF77BF940F63C40ABF5A2
:1042C0008431C2F2000063231597CDE91377CDE95D
:1042D0001177CDE90F77CDE90D7741F61F4280E8E0
:1042E0008600C0E903378761FDF738FE18B1EFF3A8
:1042F000108072B6FEE740F63C40C2F2000014A9FE
:10430000CDE91477FDF7C4FC18B1EFF3108072B655
:10431000FEE740F63C476020C2F200070D90002403
:104320000DA938460422CDE90E4411940425FDF769
:1043300015FD20B1EFF3108072B600BFFEE73846DE
:10434000FDF7E2FCFDF7F4FE38460421FDF78CFE94
:104350003868322181634046022101224FF0010A70
:10436000FCF72EFA082040F28C17CDE9080810203F
:10437000202140224FF48053C2F20007CDE90038DB
:10438000CDE90228CDE9041806903846142104220C
:104390005B460A95CDF81C80FBF756FF40F288601B
:1043A000C2F20000047040F28A1540F68440C2F266
:1043B0000005C2F200002C70047040F28B14C2F2AF
:1043C000000484F800A040F2891AC2F2000A032017
:1043D0008AF8000040F288100421C2F20000002692
:1043E0000170FFF785FE48464FF480410022FCF73C
:1043F000E7F948464FF400410022FCF7E1F94FF499
:104400007A70FCF7C1F8584680210022FCF7D8F9F1
:10441000584640210022FCF7D3F941F28830FCF7DE
:10442000B3F858464FF400510122FCF7C9F9584639
:104430004FF480410022FCF7C3F958464FF4004185
:104440000022FCF7BDF940F27210C2F200000238FF
:104450000C9040F27A10C2F2000002380B9057E044
:104460003846FBF767FF384600210022FBF776FF4E
:1044700044F60F413846C0F60001FCF761F83846B3
:1044800000210122FBF76AFF44F6EA313846C0F604
:104490000001FCF755F8384600210222FBF75EFFC9
:1044A00044F6E0313846C0F60001FCF749F84846CA
:1044B0004FF4804100222670FCF782F948464FF401
:1044C00000410022FCF77CF94FF47A70FCF75CF8AD
:1044D000584680210022FCF773F9584640210022FB
:1044E000FCF76EF941F28830FCF74EF858464FF46D
:1044F00000510122FCF764F958464FF48041002234
:10450000FCF75EF958464FF400410022FCF758F9D9
:104510002878B8B320780128A2D058464FF400512B
:104520000022FCF74DF99AF80000022800F0A9815A
:10453000012800F0C981002840F0098248464FF464
:1045400080410022FCF73CF948464FF4004100222C
:10455000FCF736F94FF47A70FCF716F858468021CC
:104560000022FCF72DF9584640210022FCF728F9DB
:1045700041F28830FCF708F844F6044AC0F6000A15
:10458000C4E100BF40F28860C2F200000078012858
:1045900000F09080002840F0698140464FF480612F
:1045A000FCF708F9002840F0C0820520FBF7ECFF7B
:1045B00040464FF48061FCF7FDF8002840F0B582DA
:1045C00040F68441C2F200010878042400F1010A97
:1045D0005FFA8AF0022840F28860C2F2000088BFC9
:1045E0004FF0000A007881F800A0002808BF0324DB
:1045F0000B9D44F6F236C0F6000600BF15F8021F08
:1046000038466A78FBF7AAFE38463146FBF798FF32
:10461000013CF3D140F27A115FFA8AF0C2F2000154
:1046200001EB400211F8101052783846FBF796FE65
:1046300044F6F4313846C0F60001FBF781FF40F63E
:104640008440C2F200000078022800F01D8240F28F
:104650008A1540F28B1440F2891A01284FF00006A7
:10466000C2F20005C2F20004C2F2000A00F0388271
:10467000002840F0538248464FF480410022FCF766
:104680009FF848464FF400410022FCF799F84FF498
:104690007A70FBF779FF584680210022FCF790F8EA
:1046A000584640210022FCF78BF841F28830FBF796
:1046B0006BFF33E240464FF48061FCF77BF8002843
:1046C00077D10520FBF760FF40464FF48061FCF78F
:1046D00071F800286DD140F68441C2F200010878DB
:1046E000042400F1010A5FFA8AF0032840F288608E
:1046F000C2F2000088BF4FF0000A007881F800A0E5
:10470000002808BF03240C9D44F6F236C0F60006CC
:1047100015F8021F38466A78FBF720FE3846314606
:10472000FBF70EFF013CF3D140F272115FFA8AF001
:10473000C2F2000101EB400211F810105278384625
:10474000FBF70CFE44F6F4313846C0F60001FBF7E7
:10475000F7FE40F68440C2F200000078032814D827
:10476000C0004FF001210022C140C0F2011222FA24
:1047700000F4CAB258464FF48041FCF721F8E2B287
:1047800058464FF40041FCF71BF840F28A1540F2FE
:104790008B1440F2891A0026C2F20005C2F200040E
:1047A000C2F2000A40464FF48061FCF703F800288B
:1047B000F8D040464FF40071FBF7FCFF00287FF46F
:1047C000A7AE0520FBF7E0FE40464FF40071FBF773
:1047D000F1FF00287FF49CAE40F28860C2F2000036
:1047E0000021017040F68440C2F20000017048468A
:1047F0004FF4804100220026FBF7E2FF48464FF4C9
:1048000000410022FBF7DCFF4FF47A70FBF7BCFE9F
:10481000584680210022FBF7D3FF58464021002252
:10482000FBF7CEFF41F28830FBF7AEFE58464FF45F
:1048300000510122FBF7C4FF58464FF4804100228B
:10484000FBF7BEFF58464FF400410022FBF7B8FFCC
:104850003846FBF76FFDFFF74BFC00BF40464FF4B7
:104860000071FBF7A7FF0028F8D051E63846FBF7A8
:1048700061FD40F28860C2F200000670FFF738FC6C
:1048800046E648464FF400410022FBF799FF4FF4FB
:104890007A70FBF779FE48464FF480410122FBF71E
:1048A0008FFF4FF47A70FBF76FFE5846802100228D
:1048B000FBF786FF584640210122FBF781FF44F6B3
:1048C0000B4AC0F6000A21E048464FF4804100221E
:1048D000FBF776FF4FF47A70FBF756FE48464FF42D
:1048E00000410122FBF76CFF4FF47A70FBF74CFE9E
:1048F000584680210122FBF763FF584640210022E1
:10490000FBF75EFF44F6074AC0F6000A3846092165
:104910000122FBF723FD38469CA1FBF711FE384628
:1049200009210122FBF71AFD38465146FBF708FE24
:1049300040F2891A40F28A1540F28B14C2F2000A42
:104940000320C2F20005C2F200048AF8000040F21F
:104950008810C2F20000007803283FF6D9ADDFE8E6
:1049600000F00225486B58464FF480410022FBF7C7
:1049700027FF58464FF400410022FBF721FF38463D
:1049800009210222FBF7EAFC44F6D8313846C0F68A
:104990000001FBF7D5FD384609210222FBF7DEFCBA
:1049A00044F6FA313846C0F6000164E058464FF448
:1049B00080410122FBF704FF58464FF400410022DA
:1049C000FBF7FEFE384609210222FBF7C7FC44F63E
:1049D000D8313846C0F60001FBF7B2FD3846092150
:1049E0000222FBF7BBFC44F600413846C0F600014A
:1049F00041E058464FF480410022FBF7E1FE584663
:104A00004FF400410122FBF7DBFE38460921022268
:104A1000FBF7A4FC44F6D8313846C0F60001FBF79A
:104A20008FFD384609210222FBF798FC44F6F63147
:104A30003846C0F600011EE058464FF4804101227E
:104A4000FBF7BEFE58464FF400410122FBF7B8FECB
:104A5000384609210222FBF781FC44F6D83138465A
:104A6000C0F60001FBF76CFD384609210222FBF776
:104A700075FC384646A1FBF763FD40F28810C2F290
:104A800000000421017043E548464FF40041002234
:104A9000FBF796FE4FF47A70FBF776FD48464FF42D
:104AA00080410122FBF78CFE4FF47A70FBF76CFD1E
:104AB000584680210022FBF783FE58464021012200
:104AC000FBF77EFE40F28A1540F28B1440F2891A01
:104AD0000026C2F20005C2F20004C2F2000A1DE084
:104AE00048464FF480410022FBF76AFE4FF47A708B
:104AF000FBF74AFD48464FF400410122FBF760FEF8
:104B00004FF47A70FBF740FD584680210122FBF7F5
:104B100057FE584640210022FBF752FE40464FF414
:104B20008061FBF747FE0028F8D040464FF4007143
:104B3000FBF740FE00287FF4EBAC0520FBF724FDDB
:104B400040464FF40071FBF735FE00287FF4E0ACDF
:104B500040F68440C2F20000067058464FF40051FF
:104B60000022FBF72DFE3846FBF7E4FBFFF744FA83
:104B700040F288610120C2F20001087040464FF403
:104B80000071FBF717FE0028F8D0C1E420202000B8
:104B90004E4F54205553450002E008C8121F08C16B
:104BA000002AFAD170477047002001E001C1121FAE
:104BB000002AFBD170470102000000000000000045
:104BC0000102030406070809020304050607080991
:104BD0000A0B0C0D0E0F101020202020202020008A
:104BE0005369676E616C203A2000566F6C74616780
:104BF000653A20003E00555742005354207543004B
:104C0000424C450030560031325600323456004393
:104C10006F6E6E6563746564204A49472041707009
:104C200000000000484C000800000020880100003F
:104C30008C010008184D000888010020080F0000B2
:104C4000A84B0008000000001321261B0859041A75
:104C500069041A95041AC50413FD251B08310811AF
:104C60001324F41379231408CD221C085524103181
:104C70001A11101A4D101A9D04C11A59181A490414
:104C80001A69041A39041409024313020125C032B7
:104C900009041B01020B1305241610010524011041
:104CA00009010424020205240617010705820308EE
:104CB000151009040133020A2E0705010240072AD4
:104CC000810711093744113A02441907112B0A06CA
:104CD00006112B4001502A07500A3B04941A121760
:104CE0001302021E40830440574D1B02035913F167
:104CF000011B08ED041AE904131D0200081808043A
:104D00000309041A03280901010102090109020823
:084D10002A013F1132100000DE
:04000005080000ED02
:00000001FF
