:020000040800F2
:100000008810002001010008A11D0008B51B000890
:100010009D1D0008E5010008E93D00080000000002
:100020000000000000000000000000002121000886
:100030005905000800000000F120000855210008C3
:100040001B0100081B0100081B0100081B01000820
:100050001B0100081B0100081B0100081B01000810
:100060001B0100081B0100081B0100081B01000800
:100070001B0100081B0100081B0100081B010008F0
:100080001B0100081B0100081B0100081B010008E0
:100090005D3D00081B0100081B0100081B01000852
:1000A0001B0100081B0100081B0100081B010008C0
:1000B0001B0100081B0100081B0100081B010008B0
:1000C0001B0100081B0100081B0100081B010008A0
:1000D0001B0100081B0100081B0100081B01000890
:1000E0001B0100081B0100081B010008DFF80CD0F1
:1000F00000F03AF800480047394100088810002015
:100100000648804706480047FEE7FEE7FEE7FEE7B1
:10011000FEE7FEE7FEE7FEE7FEE7FEE7D521000883
:10012000ED000008D2B201E000F8012B491EFBD21D
:1001300070470022F6E710B513460A4604461946F2
:10014000FFF7F0FF204610BD30B5054600200346FE
:1001500000E05B1C934205D2EC5CC85C201A01D124
:10016000002CF6D130BD0000064C074D06E0E068DB
:1001700040F0010394E8070098471034AC42F6D3EE
:10018000FFF7B8FF88430008A843000870B58C1833
:1001900010F8015B15F0070301D110F8013B2A119B
:1001A00006D110F8012B03E010F8016B01F8016B88
:1001B0005B1EF9D12B0705D40023521E0DD401F884
:1001C000013BFAE710F8013BCB1A921C03E013F84D
:1001D000015B01F8015B521EF9D5A142D8D3002082
:1001E00070BD0000FEE7000000207047002070474F
:1001F00010B540F28864C2F2000440F24461C2F2D9
:1002000000012046002202F0F9F940F20461C2F236
:100210000001204602F0ECF9002010BDB0B540F21C
:100220008865C2F200050C460146284602F0E0F956
:10023000284602F0BFF9216840F20460C2F20000D3
:1002400002F0BCFF0020B0BD10B5044600202070B5
:100250000298617020810498039920820698E160D9
:10026000208708980599A4F840000A9861630799C7
:10027000A4F848000C98E1630999A4F8500040F6EE
:10028000064061640B99C2F61400C4F85200322093
:10029000A2706360E16400F04DF820463321002233
:1002A00000F074F8052000F045F8204633210022C4
:1002B00000F06CF8052000F03DF8204632210022C5
:1002C00000F064F8052000F035F894F8521020464C
:1002D000002200F05BF894F853102046002200F052
:1002E00055F894F854102046002200F04FF894F886
:1002F00055102046002200F049F820460121002236
:1003000000F044F820460221002200F03FF810BD22
:1003100080B5017831B1102908D10121002200F007
:10032000A7F803E00121002200F030F8052000F0DA
:1003300001F880BD80B500F031F980BD80B543780B
:1003400090F802E08B4290F800C098BF591E964585
:1003500098BFAEF10102D2B20BA39A5CBCF1000FC0
:1003600011440AD0BCF1100F18BF80BD41F08001CC
:10037000C9B2002200F07CF880BD41F08001C9B212
:10038000002200F003F880BD0040145470B50D4603
:100390000446012A4FEA111603D86068218900F04B
:1003A00023FA606B218F06F0010200F01DFAE06B6A
:1003B000B4F84010C5F3401200F016FA606CB4F8BF
:1003C0004810C5F3801200F00FFAE06CB4F850103A
:1003D000EA0900F009FAE068218A002200F004FA34
:1003E0000120FFF7A7FFE068218A012200F0FCF955
:1003F0000120FFF79FFFE068218A002200F0F4F956
:100400000120FFF797FF606B218F05F0010200F0DC
:10041000EBF9E06BB4F84010C5F3400200F0E4F9EA
:10042000606CB4F84810C5F3800200F0DDF9E06CB0
:10043000B4F85010C5F3C00200F0D6F9E068218A84
:10044000002200F0D1F90120FFF774FFE068218A53
:10045000012200F0C9F90120FFF76CFFE068218A52
:10046000002200F0C1F90120FFF764FF70BD000019
:10047000B0B50D46012A044603D86068218900F012
:10048000B3F96069218B05F0010200F0ADF9E06974
:10049000218CC5F3400200F0A7F9606A218DC5F3F5
:1004A000800200F0A1F9E06A218EC5F3C00200F0DD
:1004B0009BF9606B218FC5F3001200F095F9E06B9A
:1004C000B4F84010C5F3401200F08EF9606CB4F837
:1004D0004810C5F3801200F087F9E06CB4F85010B2
:1004E000EA0900F081F9E068218A002200F07CF935
:1004F0000120FFF71FFFE068218A012200F074F954
:100500000120FFF717FFE068218A002200F06CF954
:100510000120FFF70FFFB0BD80B5027832B1102A7D
:1005200018BF80BD0122FFF7A3FF80BD0122FFF7A6
:100530002DFF80BDB0B50A78002A08BFB0BD0446C3
:100540004D1E00BFD1B22046FFF7E6FFAA78013565
:10055000002AF7D1B0BD000070470000EFF3108013
:1005600072B600BFFEE70000B0B54FF2E871C1F609
:10057000FF7108688A68801808BFB0BD40F258153E
:10058000C2F200054C68A91C082201F015FB05F118
:1005900012012046042201F00FFBB0BDB0B50446A5
:1005A00000F028F9054640F28010C2F20000007801
:1005B000611C18BF044400BF00F01CF9401BA0429E
:1005C000FAD3B0BD2DE9F04F84B00E680290002E32
:1005D00000F0018140F2004741F2004202984FF6DC
:1005E000FF7EC4F20107C4F20102042300240125A6
:1005F000C1F2100E4FF0000A4FF00009904208BF00
:10060000032300930AE000BF01250E680AF1010AE6
:1006100036FA0AF204F1040400F0DD8005FA0AFB60
:1006200016EA0B08F1D04A68724511DC122A54D838
:100630000298DFE802F0350A4347535353535353AC
:10064000535353535353534A4E00D1F80C9045E043
:100650004FF6FF73C1F221039A4210DC0023C1F26E
:10066000110302989A421BD00023C1F212039A424E
:1006700016D00023C1F221039A4211D02EE00023AC
:10068000C1F2220302989A420AD00023C1F2310338
:100690009A4205D00023C1F232039A421ED100BF14
:1006A0008A6842B1012A14BFC0F814B0C0F810B073
:1006B0004FF0080912E04FF004090FE0CA6802F198
:1006C00008090BE04FF0000908E0CA6802F10409CC
:1006D00004E0CA6802F10C0900E0029822460346D1
:1006E000B8F5807F24BF203A04331D684FF00F0C0B
:1006F0000CFA02F6B54309FA02F22A431A60CA79E3
:10070000D2067FF581AF41F21803CDF80490C4F210
:1007100002031A68F34642F001021A601A684FEAAF
:100720009A0E02F001020392039AA7F57E72B9466F
:1007300052F82E3004F00C0740F600060CFA07F5CC
:10074000C4F20106B04223EA050C10D040F6004383
:10075000C4F2010398420CD041F20003C4F2010339
:100760009842009B4FF0010508BF022303E00023DD
:1007700000E001230125BB4043EA0C0342F82E3080
:100780004E684F46F203D9F8002054BF22EA08020F
:1007900042EA0802DDF804903A607A68B30354BF75
:1007A00022EA080242EA08027A60F302BA6854BFF9
:1007B00022EA080242EA0802B30240F20C43BA609D
:1007C000C4F20103DE461A6854BF22EA080242EA74
:1007D00008021A6019E704B0BDE8F08F806808408D
:1007E00018BF012070470000002A08BF09040161FA
:1007F0007047000040F68440C2F200000068704775
:1008000040F2801040F68441C2F20000C2F20001C2
:1008100000780A68104408607047000080B542F212
:100820000000C4F20200016841F0100101600320E1
:1008300000F066F8002000F005F800F02BF800202A
:1008400080BD0000B0B540F28012C2F2000240F25A
:100850001C011278C2F200014FF47A730968B3FBED
:10086000F2F20446B1FBF2F1084601F049F80F2C10
:100870004FF001050CD858B94FF0FF302146002247
:10088000002500F02DF840F28410C2F20000046050
:100890002846B0BD82B041F21800C4F202000168DF
:1008A000022241F001010160016801F001010191A2
:1008B0000199416841F080514160406800F08050EA
:1008C000009000980420C4F20100016862F31A61EC
:1008D000016002B07047000080B503F087FA80BD68
:1008E00070B514460D46064603F090FA2946224696
:1008F00001F058FA0146304603F090FA70BD00004E
:1009000080B503F09DFA80BD80B501F0070C0CEBBB
:100910008C0C00EBCC0C0CF1280C01EB810E0906C1
:1009200000EBCE0058BF00F5B47C4AB101208CF832
:100930000C00180CACF80A000020ACF8083080BDA0
:1009400000208CF80C000020ACF8063080BD0000C0
:100950007047000080B501EB8102D0F8E83200EB6F
:10096000C200C26B184602F0BBF880BD80B501EB37
:100970008102D0F8E83200EBC200D0F87C211846A2
:1009800002F010F980BD000010B50446080601F021
:10099000070000EB800104EBC10205D402F5B4713D
:1009A000002382F8693104E0012302F1280182F872
:1009B000293094F8A8220870012A04BF022010BD33
:1009C0002068012284F8A82202F072FD002084F839
:1009D000A80210BDB0B50446406801F00F02824283
:1009E00084BF0120B0BD080601F0070000EB8001C4
:1009F00004EBC10205D402F5B471002382F8693119
:100A000004E0012302F1280182F8293094F8A82299
:100A10000025012A8D70087004BF0220B0BD206837
:100A2000012284F8A82202F0E3FD284684F8A852A7
:100A3000B0BD0000B0B5006848F2C00CB0F850403E
:100A400091F800E0530404EBCE0400EB440416D408
:100A5000B4F80C448B696FF39F241B1B38BF002331
:100A60008B611AD9520624D430F82E2040F60F7329
:100A70001A4042EA0C0220F82E20DCB93BE0B4F820
:100A800004448B696FF39F241B1B38BF00238B61C9
:100A900013D952061DD434BB2DE030F82E3043F666
:100AA0000F752B400CF5FE556B4020F82E3052068A
:100AB000DAD504B34B694A8917E030F82E3043F693
:100AC0000F752B400CF5FE556B4020F82E3052066A
:100AD000E1D530F82E2040F60F731A4042EA0C029E
:100AE00020F82E203CB14B690A891946234603F0B1
:100AF00041F92046B0BD2046B0BD0000F0B581B040
:100B0000074600680D46B0F850300978164603EBEA
:100B1000C102730600EB420230D4B2F80C24AB6978
:100B20006FF39F229B1A38BF0023AB6157D9730420
:100B300009D430F8213040F60F7633404CF280066D
:100B4000334320F8213095F82430012B40F06A819E
:100B5000D5E904E4D5E9076304EB020CB418734546
:100B6000C5F814C0EC6180F0D680002B00F0FC804A
:100B700000229E462A6285F82420F9E0B2F8042477
:100B8000AB696FF39F229B1A38BF0023AB613BD93F
:100B9000730409D530F8213040F60F7633404CF21B
:100BA0008006334320F8213095F82430012B40F0A3
:100BB0003981D5E90436D5E9074E06EB020C144419
:100BC0009E45C5F814C0EC6180F0A9800026BEF1F6
:100BD000000F85F8246040F0A5809646A3E06A786F
:100BE000012A26D072BB0C01B0F850300434044402
:100BF0002344B3F8004424F4F844A3F80044B3F8C1
:100C0000004444F400441BE06A78012A2ED0B2BBB1
:100C10000B01B0F850C0043303446344B3F80044FC
:100C200024F4F844A3F80044B3F8004444F4004426
:100C300023E00C01B0F85030043404442344002471
:100C4000A3F80044012A2ED0B2BB0B01B0F850200B
:100C50000C3318441044B0F8002422F4F842A0F8F1
:100C60000024B0F8002442F4004223E00C01B0F864
:100C700050300434044423440024A3F80044012ADF
:100C80002DD0AABB0B01B0F850200C3318441044EF
:100C9000B0F8002422F4F842A0F80024B0F80024B0
:100CA00042F4004222E00B01B0F850200C3318440B
:100CB00010440022A0F800243846FFF74BFE7004D1
:100CC00000F1B0803868297840F60F7330F82120A1
:100CD0001A404CF280031A4320F82120A2E00B01B5
:100CE000B0F850200C33184410440022A0F800241F
:100CF0003846FFF72FFE700440F194803868297859
:100D000040F60F7330F821201A404CF280031A434A
:100D100020F8212086E0A3EB0E022A6228E0AEEB49
:100D200003069E462E626A78012A14D0002A5ED1FC
:100D300009010431B0F850200144BEF1000F01F563
:100D4000806136D0BEF13E0F43D80EF0010303EBB5
:100D50005E039B024AE00901B0F8502004310144CF
:100D60001144A1F800E442E0002385F824309646BF
:100D70006A78012A14D0002A4ED109010C31B0F84A
:100D800050200144BEF1000F01F5806119D0BEF181
:100D90003E0F33D80EF0010303EB5E039B023AE0F3
:100DA0000901B0F850200C3101441144A1F800E4CD
:100DB00032E0535A23F4F8435352535A43F4004356
:100DC00014E0535A23F4F8435352535A43F4004364
:100DD00021E04FEA5E134FF0FF345FEACE6608BFB2
:100DE00004EB5E134FF4004444EA832353522A89F0
:100DF0001FFA8EF3614602F0E1FF13E04FEA5E1343
:100E00004FF0FF345FEACE6608BF04EB5E134FF489
:100E1000004444EA832353526A891FFA8EF36146E1
:100E200002F0CCFF3868297840F63F7330F8212073
:100E30001A4048F2B0035A4020F8212001B0F0BD1A
:100E400001F0070101EB810100EBC100D0F8840142
:100E500070470000B0B50546080601F0070000EB3A
:100E6000800105EBC10C05D40CF5B47100248CF89D
:100E7000694104E001240CF128018CF829404C78E8
:100E80000870002C0A61CB7018BFC881022B04BF08
:100E90000020087195F8A802012804BF0220B0BD07
:100EA0002868012285F8A82202F0D8F9002085F8E8
:100EB000A802B0BD10B501F0070C0CEB8C0100EBE3
:100EC000C10E00680EF5B4710024CEF87C21CEF876
:100ED0008031CEF884418EF869418EF868C102F005
:100EE000E1FB002010BD0000B0B50446406801F0F1
:100EF0000705854284BF0120B0BD080609D401EB77
:100F0000810004EBC00000F5B471002280F8692173
:100F100008E005EB850004EBC000012200F1280188
:100F200080F8292094F8A802012201288A700D7007
:100F300004BF0220B0BD206884F8A82202F098FB0C
:100F400025B9206804F52C7102F050FB002084F8CC
:100F5000A802B0BD80B501F0070C0CEB8C0100EBD2
:100F6000C10101F828CF4FF0010C01F1140781F8FD
:100F700024C04FF0000E87E80C4000680B6281F837
:100F800001C002F08FFB002080BD0000F0B585B0ED
:100F90000746006802F0EAFE000402D5384600F079
:100FA00017FF386802F0E2FE40050DD53868B0F84A
:100FB000441021F48061A0F84410384600F03CF958
:100FC0003846002100F056F9386802F0CFFE4004A0
:100FD00006D53868B0F8441021F48041A0F84410D8
:100FE000386802F0C3FE800406D53868B0F84410B3
:100FF00021F40051A0F84410386802F0B7FEC00494
:1010000016D53868B0F8401021F00401A0F840105F
:10101000B0F8401021F00801A0F84010384600F068
:101020001DF93868B0F8441021F48051A0F844103C
:10103000386802F09BFE000542D538686FF0010366
:10104000041F01AA214600BF31F8045FD6180233FD
:101050000E2B7580F8D1B0F8401041F00101A0F8D6
:101060004010B0F8401021F00101A0F8401000BF7E
:10107000B0F844104905FBD5B0F844106FF00103F7
:1010800021F48061A0F84410D118498802330E2B56
:1010900024F8041FF8D1B0F8401041F00801A0F87E
:1010A0004010B0F8441021F40061A0F84410B0F8EA
:1010B000401041F00401A0F84010384600F012F949
:1010C000386802F053FE800509D53868B0F844103E
:1010D00021F40071A0F84410384600F0C5F83868D3
:1010E00002F044FEC00506D53868B0F8441021F47B
:1010F0008071A0F8441005B0F0BD0000F0B585B0D7
:10110000F8B1044690F8A90228B9002084F8A80292
:10111000204600F06FF8032084F8A902206802F04E
:101120005BFA94E82F50D4E907678DE82050CDE9A9
:10113000036702F0BBF930B1022084F8A90201254F
:1011400054E0012552E020680021002502F02CFE29
:101150006168B1B1616801200023002203EB8303C1
:1011600004EBC30787F82820D3B20132FB86D3B241
:10117000994287F8290087F82B50C7E90E553D643E
:10118000ECD8A9B100200023002200BF03EB8303A9
:1011900004EBC30787F868210132D3B2994287F87C
:1011A000690187F86B01C7E95E00C7F88001EDD8D7
:1011B00004F10807D4E9056520688CCFD4E907CE8F
:1011C000CDE9007602AE86E8205002F0F7F920B1B2
:1011D000022084F8A902012508E00025012084F8F6
:1011E000245084F8A902206802F0E6F9284605B0E8
:1011F000F0BD000080B582B0006845F60041C4F241
:101200000001884201D002B080BD41F21C00C4F24E
:1012100002000168002241F4000101600068002121
:1012200000F40000019001981420FFF759FB1420EE
:10123000FFF752FB02B080BD10B50446806802285B
:1012400018BFFFF78BF9D4F8E802012101F09EFDE9
:10125000D4F8E80201F058FD10BD000080B5D0F8C8
:10126000E80201F07BFD80BD80B5D0F8E80201F016
:101270007FFD80BD10B5044690F8A802012804BF88
:10128000022010BD012084F8A80284F824102068F0
:1012900002F08CFD002084F8A80210BD80B5D0F8C3
:1012A000E82200F52C71104601F07CFD80BD0000A5
:1012B00010B5044690F8A802012804BF022010BD12
:1012C0002068012184F8A81202F03EFD2046012189
:1012D000FFF73EFB206802F06DF9002084F8A802B9
:1012E00010BD000010B50446D0F8E80201F09AFDE8
:1012F000A069002808BF10BD4EF61050CEF20000C5
:10130000016841F00601016010BD00002DE9F041C7
:1013100082B00446007841F21C06C007C4F20206FF
:101320004ED03068C0000BD430684FF0010840F058
:1013300080503060306800F080500190019801E0EA
:101340004FF0000847F20007C4F200073868C005F4
:1013500012D4386840F480703860FFF74BFA0546C5
:101360003868C00508D4FFF745FA401B6428F7D950
:10137000032002B0BDE8F081706810F4407012D014
:10138000616801F4407188420DD0706840F24042BB
:10139000C4F24222012320F4407113600023C007ED
:1013A0001360716029D17068616820F4407008434F
:1013B000B8F1000F706003D0306820F080503060CA
:1013C0002068810707D556F8181CA26821F440410F
:1013D000114346F8181CC00603D4002002B0BDE833
:1013E000F08156F8180CE16820F48000084346F8B4
:1013F000180C002002B0BDE8F081FFF7FBF90546AC
:1014000041F2883770688007CDD4FFF7F3F9401BAD
:10141000B8424FF00300F5D9ECE700002DE9F043A6
:1014200081B0002800F0878042F20008C4F2020870
:101430000446D8F800000D4600F0070088420CD2A0
:10144000D8F8000020F007002843C8F80000D8F8BA
:10145000000000F00700A8426DD1206841F20409A5
:101460008107C4F2020917D5410705D5D9F8001044
:1014700041F4E061C9F80010010705D5D9F8001062
:1014800041F46051C9F80010D9F80010A26821F0A9
:10149000F0011143C9F80010C00745D1D8F8000089
:1014A00000F00700A8420CD9D8F8000020F007008F
:1014B0002843C8F80000D8F8000000F00700A84250
:1014C00039D12068410707D5D9F80010E26821F426
:1014D000E0611143C9F80010000708D5D9F80000F1
:1014E000216920F4605040EAC100C9F8000000F012
:1014F0004DF8D9F8001044F27632C1F30311C0F66A
:101500000002515C40F21C0220FA01F140F284100A
:10151000C2F200000068C2F200021160FFF792F907
:10152000002001B0BDE8F0836068012807D159F8B8
:10153000041C89030CD4012001B0BDE8F08359F8E4
:10154000041C022802D18901F5D501E08907F2D5F2
:10155000D9F8001021F003010843C9F80000FFF793
:1015600049F9064641F28837D9F80000616800F071
:101570000C00B0EB810F91D0FFF73CF9801BB84213
:10158000F2D9032001B0BDE8F083000041F2040C61
:10159000C4F2020CDCF8003003F00C00082841F221
:1015A0000020C0F27A0018BF7047C3F383420AA13B
:1015B0008A5CD90305D440F60010C0F23D005043C8
:1015C0007047DCF8001008A3C1F34041595C504358
:1015D000B0FBF1F0704700BF0203040506070809DD
:1015E0000A0B0C0D0E0F1010010200002DE9F04146
:1015F00082B0002800F0C4800446007841F2000662
:10160000C007C4F2020643D0706800F00C00042842
:1016100017D0706800F00C00082802D17068C00371
:101620000FD465689DB1B5F5803F06D03068B5F53B
:10163000A02F0DD140F480203060306840F480301D
:101640000CE03068800323D5606808BB98E0306800
:1016500020F480303060306820F480203060FFF764
:10166000C9F8002D054610D03068800310D4FFF76C
:10167000C1F8401B6428F7D908E100BFFFF7BAF8AA
:10168000401B64284FF0030077D830688003F5D4FE
:101690002078800718D5706810F00C0F07D070689C
:1016A00000F00C00082826D17068C00323D43068ED
:1016B000800702D52069012862D13068616920F075
:1016C000F80040EAC1003060207800073DD5A069ED
:1016D00038B30020C4F242200121C0F88014FFF783
:1016E00089F80546706A80072DD4FFF783F8401B00
:1016F0000228F7D9CAE02069002840F20000C4F2AD
:10170000422000F09A8001210160FFF773F805463E
:1017100030688007D1D4FFF76DF8401B0228F7D955
:10172000B4E00020C4F242200021C0F88014FFF78A
:1017300061F80546706A800707D5FFF75BF8401B24
:101740000228F7D9A2E000F0D5FC207840071BD48E
:10175000E5698DB1706800F00C0008284CD1012DAE
:101760000ED07068216A00F480328A4208D1616A22
:1017700000F47010884203D1002002B0BDE8F0816F
:10178000012002B0BDE8F081F069C0000BD4F0691F
:101790004FF0010840F08050F061F06900F0805097
:1017A0000190019801E04FF0000847F20007C4F2F1
:1017B00000073868C00510D4386840F4807038607D
:1017C000FFF718F8054600BF3868C00505D4FFF7D5
:1017D00011F8401B6428F7D958E0E568002D3DD08A
:1017E000012D05D0306A052D39D140F0040030625A
:1017F000306A40F0010038E00027C4F242270020A0
:101800003866FEF7F7FF022D05460BD130688001E0
:1018100054D5FEF7EFFF401B02284FF00300F5D927
:10182000ABE700BF30688001A6D5FEF7E3FF401BA1
:1018300002284FF00300F5D99FE700210160FEF771
:10184000D9FF0546306880077FF53EAFFEF7D2FF2F
:10185000401B02284FF00300F4D98EE7306A20F0D5
:1018600001003062306A20F004003062FEF7C2FFEF
:10187000002D054641F2883714D000BF306A80073A
:1018800013D4FEF7B7FF401BB842F7D9032002B0CC
:10189000BDE8F081FEF7AEFF401BB8424FF00300F9
:1018A0003FF66BAF306A8007F4D4B8F1000F3FF415
:1018B0004FAFF06920F08050F06149E7206AB0F541
:1018C000803F05D17168A26821F400311143716035
:1018D0007168626A21F4741110430843706001203A
:1018E0003866FEF787FF0446306880013FF544AF55
:1018F000FEF780FF001B02284FF00300F4D93CE7FD
:1019000080B500F00FFC80BD10B590F83C20012A96
:101910004FF0020231D0012380F83C3080F83D20A6
:101920000268D2F804E0D2F808C00C682EF0700308
:10193000234340F2FF74C4F20004A242536005DC6A
:10194000B2F1804F0ED040F2004307E042F6004370
:10195000C4F201039A4205D040F60003C4F200032A
:101960009A4204D149682CF0800319439160012107
:10197000002280F83D1080F83C20104610BD000089
:1019800080B586B0016840F20040C4F20000814298
:101990004FF00001CDE90411CDE9021101D006B0EC
:1019A00080BD41F21801C4F202010A6800F58230DC
:1019B00042F004020A60096801F0040101910199F2
:1019C0008021029102210391059102A9FEF7FAFDFF
:1019D00006B080BDB0B5044690F83C00012804BFB5
:1019E0000220B0BD4FEAB2000D460121032884F861
:1019F0003C1036D8DFE800F0020A1222206829469F
:101A000000F042FC206850F8181F0EE020682946BC
:101A100000F06AFC206850F8181F16E0206829467C
:101A200000F096FC206850F81C1F41F0080101608E
:101A3000016821F00401016029690FE0206829464E
:101A400000F0BAFC206850F81C1F41F400610160EE
:101A5000016821F48061016029690902026811436B
:101A60000160002084F83C00B0BD0000002804BFE5
:101A70000120704710B5044690F83D0028B90020B9
:101A800084F83C00204600F01FF8022084F83D0056
:101A90002068211D00F0A0FB012084F8460084F896
:101AA0003E0084F83F0084F8400084F8410084F848
:101AB000420084F8430084F8440084F8450084F828
:101AC0003D00002010BD000081B0006840F20041E0
:101AD000C4F20001884201D001B0704741F21C00FD
:101AE000C4F20200016841F002010160006800F0E8
:101AF00002000090009801B070470000B0B50446A5
:101B000041B1082909D0042914BF04F1410004F1AE
:101B10003F0004E004F13E0001E004F140000078E1
:101B200001281CBF0120B0BD022041B1082909D005
:101B3000042914BF84F8410084F83F0004E084F8CD
:101B40003E0001E084F84000206842F6444501224E
:101B5000C4F2010500F086FB2068A5F1440188422B
:101B600003D1296841F40041296040F2FF71C4F2B9
:101B70000001884205DCB0F1804F0ED040F20041F8
:101B800007E042F60041C4F20101884205D040F668
:101B90000001C4F20001884206D1816801F007010A
:101BA000062904BF0020B0BD016841F001010160B9
:101BB0000020B0BDFEE7000010B5002A08BF10BD30
:101BC00002394FF0370C4FF0000E00BF0CEB1074D1
:101BD000B0F1204F4FEA107338BF03F1300401F821
:101BE000024F0001013A81F801E0EFD110BD000081
:101BF0002DE9F04786B0002741F21800CDE90477BF
:101C0000CDE90277C4F20200016840F6000941F014
:101C1000200101600168C4F2010901F02001019175
:101C200001990168002241F00401016001687E26EB
:101C300001F0040101910199016841F0080101607E
:101C400000687E2100F00800019001984846FEF7E8
:101C5000CBFD09F5806528464FF2C00100224FF206
:101C6000C008FEF7C1FD029602AE4FF0010A022441
:101C700048463146CDE903A70594FEF7A3FC284664
:101C80003146CDE9028ACDE90474FEF79BFC4FF49E
:101C9000E060CDE90207484631460497FEF792FC22
:101CA00006B0BDE8F087000010B58AB040F63840B5
:101CB00040F200410024C2F20000C4F2000163239C
:101CC0000994CDE90744CDE90544CDE90344CDE9C4
:101CD000014441F61F4280E81600C0E903348461E4
:101CE000FFF7C4FE00BB40F63840C2F2000008A96E
:101CF000CDE90844FFF708FEB0B96020019000204C
:101D0000CDE90200059040F63840C2F2000001A97A
:101D10000422FFF75FFE38B940F63840C2F20000F7
:101D2000FFF72EFE0AB010BDFEF718FC80B540F29A
:101D3000886040F20001C2F20000C2F200010022FD
:101D400000F0A6FE002818BFFEF708FC40F28860ED
:101D500040F22001C2F20000C2F2000101F080F85E
:101D6000002818BFFEF7FAFB40F2886040F24411E9
:101D7000C2F20000C2F2000100F032FC002818BFDD
:101D8000FEF7ECFB40F28860C2F2000001F0F2F8CE
:101D9000002818BFFEF7E2FB80BD0000FEE7000050
:101DA000FEE7000000F0070080F00703042B28BFC7
:101DB00004234FF0FF3C03380CFA03F338BF002034
:101DC000994381400CFA00F022EA00000843704772
:101DD0002DE9F04F81B004460068B0F94410B1F12C
:101DE000FF3F02DD01B0BDE8F08F04F52C7140F635
:101DF0000F7A009109E020461146FEF7ABFD00BFC7
:101E00002068B0F944100029ECD5B0F8442012F055
:101E10000F0923D030F829604FEA4908310440F116
:101E2000FC8030F8181001EA0A01803120F81810FF
:101E300009EB890104EBC10B9BF874110BF5B47726
:101E400000297DD09BF86B11022940F08B80204641
:101E500039463246FEF7EEFD0546CBE00188D20654
:101E60002CD401EA0A0101F500410180B0F85000CC
:101E700094F82810226800EBC10002EB4000B0F893
:101E80000404E16B6FF39F2060640844E063204624
:101E90000021FEF75FFD94F824000028B0D0206CEC
:101EA0000028ADD194F82400216840F08000C0B231
:101EB000A1F84C00002084F82400A1E70A056FD4A3
:101EC00009049DD5018801EA0A0180310180B0F83A
:101ED000501094F86821236801EBC20103EB410123
:101EE000B1F80C346FF39F23C4F884318BB1D4F86C
:101EF0007C1171B1B4F86E2101F03CFFD4F87C0183
:101F0000D4F884110844C4F87C0120460021FEF76F
:101F10002DFD2068018809053FF572AFB0F850101B
:101F2000D4F8783100F20C42002B00F0BD803E2B3B
:101F300000F2C58003F0010707EB53039B02CBE0DF
:101F4000B0F850103A7801EBC20100EB4101B1F852
:101F50000C546FF39F25002D4CD0DBF87C11BBF89F
:101F60006E2144E0397848F2C00330F8212002EABB
:101F70000A021A4320F8212030F82120B0F850300E
:101F8000520403EBC10100EB410127D4B1F80C541A
:101F90006FF39F2575B3DBF87C11BBF8722126E047
:101FA000B0F8501094F86821236801EBC20103EBEC
:101FB0004101B1F80C34B4F86E2100996FF39F23FE
:101FC000C4F8843101F0D6FE2068018801EA0A01D4
:101FD000803101802046FFF761F911E7B1F8045420
:101FE0006FF39F2535B1DBF87C11BBF870212B46D0
:101FF00001F0C0FEDBF88411DBE95F0229442844CC
:10200000CBF88411CBF87C011AB1DBF87801A84237
:1020100042D939782046FEF7A9FC30067FF5F0AEAC
:10202000206809EB890130F8182004EBC10302EAAB
:102030000A0101F5004120F8181093F82B2003F154
:102040002801002A18BF032A1DD1B0F850700A7861
:10205000266807EBC20706EB4707B7F804741E6C47
:102060006FF39F27F61B4FF0000538BF2E461E6406
:102070007FF6C1AEDA6B5E6C3A44DA63F2195A64E9
:1020800001F010FBBCE6022A01D1F205DDD52046A5
:102090003246FEF733FDB3E62068394601F002FB15
:1020A00030067FF5ADAEBBE78B5A48F2000723F44C
:1020B000F8438B528B5ACFF6FF773B430CE05F0916
:1020C000DE064FF0FF3608BF06EB531748F2000359
:1020D000CFF6FF7343EA87238B52018843F60F72D2
:1020E000114048F2C00202F53F525140018087E69C
:1020F0007047000081B040F21C00C2F2000000688E
:1021000044F6D351C1F26201A0FB0101480A0090DC
:1021100000BF0098411E00280091F9D101B070471E
:1021200070470000B0B501380024B4EB106F1CBF3D
:102130000120B0BD4EF21005CEF2000568604FF0F0
:10214000FF300F2101F06AFE0720AC6028602046B6
:10215000B0BD000080B5FEF753FB80BD70B594B0F4
:102160000AAC20462821FDF7E4FF002501204FF4AA
:1021700080310A90CDE90B150E9002264FF4E01045
:10218000CDE91161139020460995CDE90755CDE9B8
:102190000555CDE90355CDE90155FFF727FAB8B943
:1021A0000F20CDE905064FF480600795CDE90805BD
:1021B00005A80221FFF732F950B910200190002044
:1021C000049001A8FFF7A2F8002804BF14B070BD66
:1021D000FEF7C4F97047000010B540F2FF7E0368B7
:1021E000C4F2000E42F6004C7045C4F2010C05DC4E
:1021F000B0F1804F0AD040F2004203E0604505D0C4
:1022000040F60002C4F20002904203D14A6823F073
:1022100070031343704505DCB0F1804F0AD040F2E3
:10222000004203E0604505D040F60002C4F200021F
:10223000904203D1CA6823F44073134323F0800211
:102240004B69D1F800E08C681A4360450260C462B3
:10225000C0F828E002D10969CCF8301001214161B1
:1022600010BD000080B501F01F014FF0010CD0F847
:1022700020E00CFA01F32EEA03030362036A02FA78
:1022800001F11943016280BD70B5026A42F6004E49
:1022900022F001020262026A456883690C688E6856
:1022A00023F0730322F00202C4F2010E43EA040C8D
:1022B000704542EA060208D070450ED04560C0F86D
:1022C00018C049684163026270BDCB6822F00C02FD
:1022D00023F004031A437045F0D125F44073D1E98B
:1022E000056533431D43E9E770B5026A42F6004EC7
:1022F00022F010020262026A456883690C688E68E7
:1023000023F4E64322F02002C4F2010E43EA042C37
:10231000704542EA061208D0704510D04560C0F8FA
:1023200018C049688163026270BDCB686FF04004D9
:1023300022F0C00204EA03131A437045EED125F4DB
:102340004063D1E9056543EA860343EA8505E5E78D
:1023500070B5026A42F6004E22F480720262026A8E
:102360004568C3690C688E6823F0730322F4007219
:10237000C4F2010E43EA040C704542EA062208D07A
:10238000704510D04560C0F81CC04968C163026246
:1023900070BDCB6840F2FF441B0222F44062A343AD
:1023A0001A437045EED125F44053D1E9056543EA5F
:1023B000061343EA0515E5E7B0B5026A22F4805238
:1023C0000262046AD0F804E0C2690B6822F4E642B3
:1023D0008D6842EA032C42F6004324F40052C4F212
:1023E0000103984242EA053304D14A692EF480453C
:1023F00045EA821EC0F804E0C0F81CC049680164C8
:102400000362B0BD10B5D0F8B822C2B101EB8103B0
:1024100000EB830E5EF81C4F64B1D0F8C0C201EB34
:1024200081030CEBC303D3F838C0B4FBFCF303FB0C
:102430001C4333B100242046C2F8144210BD0220D0
:1024400010BD002400220023CEF8004000F0F4FC70
:10245000204610BDB0B5D0F8B852044600F0E6FBF7
:10246000D4F8B812C5F80C0249B1D4F8BC0205F58D
:102470000371C268D5F8040290470020B0BD022065
:10248000B0BD0000B0B58121044600F021FB00255D
:1024900020460121E56200F01BFB20468221C4F8A2
:1024A0006C5100F015FBD4F8B802256448B1D4F89B
:1024B000BC0240688047D4F8B80200F077FEC4F848
:1024C000B8520020B0BD000010B5D0F8BC1269B100
:1024D000D0F8B84294F80002FF2807D08B6894F82F
:1024E000012221469847FF2084F80002002010BDF9
:1024F000014640F2E0000A22C2F200000A80704762
:10250000014640F258004322C2F200000A807047A0
:10251000014640F29C004322C2F200000A8070474C
:10252000014640F2EC004322C2F200000A807047EC
:10253000F0B581B00546007C4027002808BF4FF465
:1025400000772846812102223B46402400F0C8FB48
:1025500001262846012102223B46EE6200F0C0FB24
:102560002846822103220823C5F86C6100F0B8FBDD
:102570004FF407702E6400F01BFEC5F8B802A8B136
:102580000746D5F8BC02006880470026C7F81462E9
:10259000C7F81862287CD7F80422002808BF4FF437
:1025A000007428460121234600F0A6FB304601B006
:1025B000F0BD000080B5D0F8B81271B190F810C02D
:1025C000D1F8042240230121BCF1000F08BF4FF4D1
:1025D000007300F091FB002080BD022080BD000050
:1025E00000290EBF0220C0F8BC1200207047000076
:1025F000D0F8B8220020C2F804127047D0F8B832E0
:102600000020C3F80812C3F81022704770B582B0DA
:102610000446D0F8B86208780D46002210F0600138
:102620008DF80720ADF8042010D020291FD1EA88AA
:102630001AB300062AD46878314686F8000220468C
:1026400086F8012200F092F8002455E068780B2803
:1026500029D00A282DD0C0BB94F89C0203283AD177
:1026600001A92046022200F09BF8002444E0204605
:10267000294600F071F802243EE0D4F8BC02294655
:102680008368687800220024984735E0D4F8BC02BB
:102690003146836868789847EA882046314600F0DA
:1026A0007FF8002428E094F89C02032819D1002424
:1026B00022E094F89C02032819D10DF1070120466D
:1026C000012200F06DF8002416E02046294600F0B3
:1026D00043F8022410E02046294600F03DF8022489
:1026E0000AE02046294600F037F8022404E020469C
:1026F000294600F031F80224204602B070BD0000E7
:1027000080B5D0F8B42252689047002080BD000008
:1027100080B590F89C22013A022A09D849880129FB
:1027200018BF80BD0021C0F8A41200F047F880BD9A
:1027300000F012F880BD000080B513460A46002163
:1027400000F0DAFA002080BD80B513460A46002169
:1027500000F072FB002080BD10B58021044600F01F
:1027600051FB2046002100F04DFB10BD80B5134603
:102770000A460321C0F894120021C0E9573300F043
:10278000BBFA002080BD000080B50521C0F894127E
:1027900000210022002300F0AFFA002080BD0000DD
:1027A00080B513460A460221C0F894120021C0E900
:1027B000073300F041FB002080BD000080B50421FC
:1027C000C0F8941200210022002300F035FB002005
:1027D00080BD000010B540F2E414C2F200040A46C5
:1027E00002A0214600F024F9204610BD43444320B6
:1027F000436F6E666967000040F230101222C2F229
:1028000000000A807047000010B540F2E414C2F2E4
:1028100000040A4602A0214600F00AF9204610BD35
:1028200043444320496E746572666163650000002D
:1028300040F254100422C2F200000A8070470000E7
:1028400010B540F2E414C2F200040A4602A0214688
:1028500000F0EEF8204610BD53544D6963726F6569
:102860006C656374726F6E696373000010B540F23B
:10287000E414C2F200040A4602A0214600F0D8F88F
:10288000204610BD53544D33322056697274756121
:102890006C20436F6D506F727400000080B51A2079
:1028A0000880FDF761FE40F25810C2F2000080BDC2
:1028B00080B5C988012910D190F89C124A1E022ABD
:1028C00004D20022014641F8082F02E0032904D176
:1028D000011D0122FFF764FF80BDFFF73DFF80BDB2
:1028E000B0B582B0044648880D464FF0FF3101EB89
:1028F000102100220629ADF8062053D8DFE801F0A8
:102900000414085252212A00D4F8B002026841E0AF
:10291000C0B2052846D8DFE800F003292D3135394B
:10292000D4F8B002426834E0217CD4F8B402002923
:102930000CBF816AC16A0DF106008847014602207A
:1029400012E0207C70BBD4F8B402416B0DF106009C
:10295000884723E0207C28BBD4F8B402016B0DF13A
:102960000600884701460720487018E0D4F8B002F6
:1029700082680EE0D4F8B002C2680AE0D4F8B0026F
:10298000026906E0D4F8B002426902E0D4F8B0026D
:1029900082693AB1207C0DF1060190470146002082
:1029A00030B114E02046FFF7D7FE0120002170B9B6
:1029B000BDF8060048B1EA883AB1904238BF0246F5
:1029C0002046ADF80620FFF7EBFEE88808B102B01C
:1029D000B0BD2046FFF7F2FE02B0B0BD017849B1AC
:1029E000411E00208A780130002A01F10101F9D14D
:1029F000C0B270470020C0B27047000080B590F8A8
:102A00009C22013A022A0FD8C98802290CD1D0F899
:102A1000A4120322002908BF0122014641F80C2F0D
:102A20000222FFF7BDFE80BDFFF796FE80BD0000CD
:102A300070B5F0B1164605460C46FFF7CFFF0221F0
:102A400001EB40003080207003206070287800285F
:102A500008BF70BD691E0222002300BFD6B246F037
:102A60000105A055635588780232002801F1010163
:102A7000F4D170BD032884BF0220704740F20021CA
:102A8000C000C0F2012121FA00F0C0B2704700007E
:102A9000002804BF0220704780B5D0F8B432002B64
:102AA0001CBF0023C0F8B432002918BFC0F8B01210
:102AB000012180F89C12027000F0BEF8002080BD59
:102AC00080B5D0F8C002FDF785FFFFF7D3FF80BDCA
:102AD00080B5D0F8C002FDF757FFFFF7CBFF80BDF0
:102AE000B0B5044669B1D4F8B40242693AB194F879
:102AF0009C02032803D1204690470020B0BD02204D
:102B0000B0BDD4F89402002818BF042804D1204690
:102B1000802100F077F93AE0022838D1D4E9081092
:102B2000814208D9081A83B22062204611461A460B
:102B3000FFF70AFE13E0E169814217D3B1FBF0F21F
:102B400002FB101090B9D4F8980281420ED22046B0
:102B5000002100220025FFF7F7FDC4F89852204617
:102B600000210022002300F0C7F810E0D4F8B402DE
:102B7000C16829B194F89C02032801D120468847F6
:102B80002046802100F03EF92046FFF7FDFD94F835
:102B9000A00201284FF0000004BF84F8A002B0BDDD
:102BA000B0BD0000B0B5044669B1D4F8B402826982
:102BB0003AB194F89C02032803D12046904700259F
:102BC0001AE00220B0BDD4F894020025052815D0E3
:102BD000032811D1D4E95810814217D9091AC4F831
:102BE0006011814238BF084683B2204611461A461A
:102BF000FFF7A2FD0020B0BD2846B0BD2046002151
:102C0000C4F8945200F0FEF82846B0BDD4F8B402DF
:102C1000016929B194F89C02032801D12046884714
:102C20002046FFF7CBFD0020B0BD000080B5D0F8F6
:102C3000C002FEF705F980BD10B5044640F64C1001
:102C400045F60041C2F20000C4F20001C0F8E842BB
:102C5000C4F8C0020822022380E80E000021C0E967
:102C600006110162FEF74AFA002818BFFDF776FC4C
:102C7000D4F8C002002100221823FDF745FED4F845
:102C8000C002802100225823FDF73EFED4F8C00286
:102C900081210022C023FDF737FED4F8C0020121B4
:102CA00000224FF48873FDF72FFED4F8C002822172
:102CB00000224FF48073FDF727FE002010BD0000B6
:102CC000D0F8C00201F07F0202EB820200EBC200EA
:102CD00000F12A02090658BF00F5B5721078704756
:102CE00080B59446D0F8C0021A466346FEF7B2F8A3
:102CF000FFF7C0FE80BD000080B5D0F8C002FEF72F
:102D0000D9F8FFF7B7FE80BDF0B581B000210022F1
:102D10004023044600254026FFF7E2FF0127204616
:102D2000802100224023C4F85871C4F86461FFF781
:102D3000D7FFD4F8B802A761666284F89C72C4F821
:102D400094526560C4F8A45228B1D4F8B4020021AA
:102D5000426820469047002001B0F0BD90F89C12D8
:102D6000042904BF90F89D1280F89C12002070473F
:102D700080B590F89C12032905D1D0F8B412C96926
:102D8000002918BF8847002080BD000002460020AF
:102D90001174704780B5D0F8C002FEF76BFAFFF7E8
:102DA00069FE80BDB0B500F52A750446284600F0DE
:102DB0004BF894F8A8020121B4F8AE22C4F894129A
:102DC00000F01F010229C4F8982208D001290CD074
:102DD00089B92046294600F0D3F80020B0BD20462E
:102DE000294600F007F90020B0BD2046294600F032
:102DF000AFF90020B0BD00F08001204600F002F8DD
:102E00000020B0BD80B5D0F8C002FEF76DF8FFF726
:102E100031FE80BD80B5D0F8C002FEF749FAFFF759
:102E200029FE80BD014690F89C02042281F89D0293
:102E3000002081F89C22704780B5D0F8C002FEF7D0
:102E400089F8FFF717FE80BD0A7802704A78427051
:102E50004A8842808A888280C988C1807047000081
:102E600000290EBF0220C0F8B412002070470000F5
:102E7000B0B58A88044642B9C88830B948887F28E6
:102E800003D894F89C12032903D12046FFF764FC71
:102E9000B0BD00F07F052046294684F89E52FFF71A
:102EA00079FF2046FFF78AFC002D14BF0220012085
:102EB00084F89C02B0BD000080B5D0F8B42232B1D5
:102EC00012689047002818BF0120400080BD0220F2
:102ED00080BD0000B0B54A8840F2E015D1B204468A
:102EE000C2F2000502292A7003D32046FFF734FC02
:102EF000B0BD94F89C0203280CD002281AD141B32B
:102F0000032084F89C0220466160FFF7D5FF022869
:102F1000EBD01EE0B1B1606888421AD0C1B2204641
:102F2000FFF7EEFB297820466160FFF7C5FF022816
:102F30000FD1DAE72046FFF70FFC29782046FFF78C
:102F4000DFFBB0BD022084F89C0220466160FFF7E1
:102F5000D7FB2046FFF732FCB0BD000080B54988A2
:102F6000012918BF80BD0121C0F8A412FFF726FC7B
:102F700080BD000080B5FFF74DFF002080BD000040
:102F800080B50A7812F0600209D0402A01D0202AC8
:102F900013D1D0F8B42292689047002080BD4A78BF
:102FA000092A0AD8DFE802F0050D091109152109DF
:102FB000191DFFF723FD002080BDFFF7CDFB00208A
:102FC00080BDFFF7A5FB002080BDFFF7C7FF0020F5
:102FD00080BDFFF74DFF002080BDFFF769FC00209A
:102FE00080BDFFF777FF002080BDFFF779FC002050
:102FF00080BD0000B0B50A460978044611F06001B2
:103000000CD0402902D0202940F08080D4F8B402AE
:1030100011468368204698470020B0BD202906D17C
:10302000D4F8B4021146836820469847B0BD507862
:10303000117970B101282BD0032867D194F89C0234
:10304000032838D0022861D141F0800080285DD06B
:1030500028E094F89C02032839D0022856D141F088
:103060008000802852D101F07F0000EB800004EB4B
:10307000800000F11402090658BF00F5AA7200256D
:103080001560204611460222FFF78AFB2846B0BD94
:1030900094F89C0203283ED0022837D141F08000EA
:1030A000802833D02046FFF7ADFE20468021FFF771
:1030B000A9FE0020B0BD5088B8BB41F08000802838
:1030C00033D0D08888BB2046FFF79CFE2DE001F06E
:1030D0000F0202EB820211F0800004EB82020CBFAF
:1030E000D2F8582192698AB101F07F0202EB820284
:1030F00004EB820202F5AA75002841F0800018BF97
:1031000002F11405802815D1002019E02046FFF7B0
:1031100023FB0020B0BD508800281CBF0020B0BD9C
:10312000480602D02046FFF7CBFC2046FFF746FBBF
:103130000020B0BD2046FFF7C3FD0028E4D00120E9
:103140002860204629460222FFF72AFB0020B0BD56
:10315000B0B50D460978044611F0600118BF40294A
:103160000DD194F89C020138022803D8A88810F0E9
:10317000FE0F0BD02046FFF7EFFA0020B0BD20294C
:10318000EFD02046FFF7E8FA0020B0BDD4F8B40233
:1031900029468268204690470028F5D1E888002813
:1031A000F2D12046FFF70AFB0020B0BD70470000B7
:1031B00040F2E430C2F2000070470000B0B50C46A7
:1031C0001FA122460546FCF7BFFF002808BF00F0FC
:1031D00083FF1CA128462246FCF7B6FF08B31AA1BC
:1031E00028462246FCF7B0FFF0B118A12846224637
:1031F000FCF7AAFFD8B116A128462246FCF7A4FF87
:10320000C0B114A128462246FCF79EFFA8B112A126
:1032100028462246FCF798FF002808BF00F04AFF26
:10322000B0BD00F069FFB0BD00F076FFB0BD00F0AA
:1032300029FEB0BD00F014FEB0BD00F035FEB0BDFB
:1032400030000000310000003200000033000000B8
:103250003400000035000000360000002DE9F04188
:103260000C78024691F803E000EB840830F8240063
:1032700047F27065BEF1030F20EA050507D800206C
:10328000DFE80EF002070D0A45F4007506E00120A4
:1032900005E045F4806501E045F4C065002048F292
:1032A000800C45EA0C03A8F80030B8F8003040F66E
:1032B0000F752B40234343EA0C03A8F800300B7B27
:1032C000002B51D0B8F8003040F60F652B400CF5BC
:1032D00080752B43A8F80030B2F850300E8902F503
:1032E0008067250107EB041426F00106E652B2F8C8
:1032F00050204C8905F108033B4424F001049C5202
:103300004978B8F80020002902F4804154D049B12E
:10331000B8F8001040F60F7211400CF580421143CE
:10332000A8F80010B8F80010490609D5B8F8001040
:1033300040F60F7211400CF140021143A8F8001042
:10334000B8F8001040F63F7211400CF120024A40DC
:10335000BEF1010F08BF41EA0C02A8F80020B8F83E
:10336000001043F60F724EE04B78B2F85050002B2D
:10337000154405F580654FEA04144BD0C98821F047
:1033800001012953B8F80010490609D5B8F8001012
:1033900040F60F7211400CF140021143A8F80010E2
:1033A000B8F8001040F63F72BEF1010F01EA0201C9
:1033B0002AD00CF1200274E049B1B8F8001040F6B0
:1033C0000F7211400CF580421143A8F80010B8F8B4
:1033D0000010490609D5B8F8001040F60F721140E8
:1033E0000CF140021143A8F80010B8F8001043F6A1
:1033F0000F7211400CF540525140A8F80010B8F877
:10340000001040F63F72114041EA0C01A8F800108C
:10341000BDE8F081CB8844F0080E23F0010325F8C5
:103420000E30B2F8505044F00C030C69D11801F57D
:1034300080613CB13E2C10D804F0010202EB540232
:10344000920218E06A5A48F2000322F4F8426A52E3
:103450006A5ACFF6FF731A430DE0E3064FEA54129F
:1034600048F200034FF0FF3E08BF0EEB5412CFF6B8
:10347000FF7343EA82226A52B8F80010490409D562
:10348000B8F8001040F60F7211400CF5804211435D
:10349000A8F80010B8F8001043F60F7211400CF5B0
:1034A00040525140A8F80010BDE8F081002070475C
:1034B00080B50B784A78097B30F823E048F2C00CDD
:1034C00000EB830341B30EF4804062B338B1188837
:1034D00040F60F7108400CF57F510843188018889A
:1034E000400606D5188840F60F71084040EA0C00E7
:1034F0001880188840F60F7108400CF57F5108437A
:103500001880188840F63F710840ACF1400108432C
:10351000188043F60F7045E052B35FEA4E602DD439
:1035200040F63F703EE038B1188840F60F71084011
:103530000CF57F51084318801888400606D5188876
:1035400040F60F71084040EA0C001880188840F6D9
:103550000F71084040EA0C001880188843F60F717C
:103560000840ACF140010843188040F63F7019E074
:103570005FEA4E400CD443F60F7013E0188840F613
:103580000F71084040EA0C00188040F63F7009E0D7
:10359000188840F60F7108400CF57F5108431880D9
:1035A00043F60F7019880840ACF140010143002038
:1035B000198080BD0020704700207047014601201F
:1035C000A1F8400000220020A1F84020A1F84420EA
:1035D000A1F85020704700000146B0F8400044F2C6
:1035E000FF0202400020A1F84020704700207047F1
:1035F00080B50A7B0AB1002080BD0A784B7830F88C
:1036000022C04FEA4202C3B15FEA4C6348F2A00C09
:103610000BD530F812E040F60F730EEA030E0CF1F2
:10362000200343EA0E0320F81230C9780129E2D0C2
:1036300030F8121040F63F7312E05FEA4C414BF253
:10364000800C09D530F8123040F60F7119400CF596
:103650008053194320F8121030F8121043F60F73FC
:10366000194081EA0C0120F81210002080BD0000F2
:1036700002460B78487832F823C040F63F710028A4
:1036800048F2900008BF43F60F71CFF6FF7008BFF5
:1036900000F57F6001EA0C014140002022F8231070
:1036A000704700002DE9F0410D4649788046012918
:1036B00043D1AE692A69287B964288BF1646002806
:1036C0005BD0E878022840F08F8028782B6A38F8A1
:1036D000204040F60F6C934204EA0C024BF2800447
:1036E0004FEA4007CFF6FF7440F2D880A4F53C546F
:1036F000224328F817209A1B2A6238F817204BF229
:103700008007520600F10881012900F04481002958
:1037100040F0768200010430B8F850104044002E8A
:1037200000F5806000F050823E2E00F25D8206F0CF
:10373000010202EB5602920261E2287BB0B3E87804
:1037400001287ED0022840F09D80002940F04B8166
:10375000B8F8502028782B69000142440430002B2F
:1037600002F5806200F00C813E2B00F22E8103F006
:10377000010707EB53039B0234E16969EA88B3B29E
:10378000404600F01BFBB8F850002978404409017E
:10379000043108444BF28001A0F8006442F6D07076
:1037A000CFF6FF71081A40F63F71BAE2AA6928699C
:1037B000111A38BF002188BF0246A961B8F85030FD
:1037C00029784BF28000090143440C31002A03F5AB
:1037D00080635AD03E2A00F2928002F0010707EB84
:1037E00052029202CA526CE1287840F60F6338F810
:1037F00020204BF280071A403A43A2F53C5228F8A9
:1038000020202A6A921B2A6238F8202052065ED4B1
:10381000012900F0A380002940F0728100010430EA
:10382000B8F850104044002E00F5806000F04C8144
:103830003E2E00F2598106F0010202EB560292027E
:103840005DE12869AA69131A38BF002388BF0246C0
:103850000129AB6178D0002940F0FA80B8F85030E7
:103860002878434400010430002A03F5806300F007
:103870009B803E2A00F2E08002F0010707EB52072E
:10388000BF02E4E00120BDE8F081CA5A22F4F84208
:10389000CA52CA5A42F40042CA5212E1A4F5405137
:1038A000114328F817100001B8F8501004304044B4
:1038B0000844A0F800342A8969699BB2404600F0A8
:1038C0007DFA42F6D070201A40F63F7129E20129B4
:1038D0004DD0002940F04B8100010C30B8F8501059
:1038E0004044002E00F5806000F0F6803E2E00F28D
:1038F000328106F0010202EB5602920236E15709CC
:103900004FF0FF36D40608BF06EB52174FF40042C3
:1039100042EA8722CA52D4E001294DD0002940F062
:10392000BE8100010C30B8F850104044002E00F564
:10393000806000F051813E2E00F2A58106F0010268
:1039400002EB56029202A9E1B8F850002B784044ED
:103950001B0104331844A0F8002479E00001B8F8F2
:103960005010043040440844A0F80064C8E000014E
:10397000B8F850100C3040440844A0F80064F6E059
:10398000835A48F2000723F4F8438352835ACFF650
:10399000FF773B4326E00001B8F850100430404464
:1039A0000844A0F800642BE1C75A27F4F847C7522F
:1039B000C75A47F400474AE00001B8F850100C30ED
:1039C00040440844A0F8006469E15F094FF0FF3605
:1039D000DC0608BF06EB531748F20003CFF6FF736F
:1039E00043EA87238352012913D000294FD1B8F825
:1039F000501028782A69000141440C3001F580619B
:103A000092B13E2A37D802F0010303EB5202920230
:103A10003CE0B8F850002978404409010C312A698B
:103A20000844A0F8002432E0425A22F4F8424252FC
:103A3000425A42F4004229E057094FF0FF36D406BB
:103A400008BF06EB52174FF4004646EA8727C752D5
:103A500001294BF2800004D099BBB8F85030297886
:103A6000B1E6B8F850102B7841441B010C331944CF
:103A7000A1F8002425E053094FF0FF37D60608BF10
:103A800007EB52134FF4004242EA83224252E869A4
:103A900000284BF2800014D0297844F2400338F813
:103AA00021201A409A4218BF002A0AD1490038F84A
:103AB000112040F60F731A40A0F53F531A4328F81F
:103AC000112043F60F712CE10A5A22F4F8420A52EF
:103AD0000A5A42F4004212E00A5A22F4F8420A5208
:103AE0000A5A42F4004241E072094FF0FF33F406F3
:103AF00008BF03EB56124FF4004343EA82220A52F6
:103B00002A896969B3B2404600F058F9D5E9042121
:103B1000286A314400239042696184BF831B304688
:103B200000282B6200F0F8806A78012A00F0968065
:103B3000002A40F09C80B8F850302A7843441201A3
:103B40000C323E2803F580637CD800F0010606EBBA
:103B50005006B60294E072094FF0FF33F40608BF36
:103B600003EB56124FF4004343EA82220A526A8959
:103B70006969B3B2404600F021F9D5E90421286A09
:103B8000314400239042696184BF831B3046002882
:103B90002B6200F0C1806A78012A00F0AF80002A11
:103BA00040F0B580B8F850302A784344120104320E
:103BB0003E2803F5806300F2948000F0010606EBD6
:103BC0005006B602D652A2E00A5A22F4F8420A522D
:103BD0000A5A42F4004212E00A5A22F4F8420A5207
:103BE0000A5A42F4004259E072094FF0FF33F406DA
:103BF00008BF03EB56124FF4004343EA82220A52F5
:103C00002A896969B3B2404600F0D8F868692A6920
:103C10008119286A00236961904288BF831B6A78F2
:103C200088BF3046012A2B6218D002BBB8F850304A
:103C30002A78434412010C3203F58063C8B13E2850
:103C40007FF683AF4609C4064FF0FF3C08BF0CEB7C
:103C500050164FF4004444EA862611E0B8F850208C
:103C60002B7842441B010C331A44A2F800046A89E1
:103C70004EE0D65A26F4F846D652D65A46F40046B6
:103C8000D6526A8944E072094FF0FF33F40608BF48
:103C900003EB56124FF4004343EA82220A526A8928
:103CA0006969B3B2404600F089F868692A698119E8
:103CB000286A00236961904288BF831B6A7888BFA5
:103CC0003046012A2B6219D00ABBB8F850302A7846
:103CD00043441201043203F5806360B33E287FF64B
:103CE0006CAF4609C4064FF0FF3C08BF0CEB501602
:103CF0004FF4004444EA8626D65208E0B8F8502033
:103D00002B7842441B0104331A44A2F800042A8988
:103D100083B2404600F052F842F6D070381A40F6AE
:103D20003F712A7838F822301940484028F822009C
:103D30000020BDE8F081D65A26F4F846D652D65A6D
:103D400046F40046D652E2E701460020A1F84400BE
:103D50004FF43F420020A1F84020704780B540F664
:103D60004C10C2F20000FDF711F980BDB0F844001C
:103D70007047000000EB42000022B2EB530F00F549
:103D800080620BD058080239043A00BF32F804CFE1
:103D9000013821F802CFF9D102310432D8071CBF13
:103DA000108808707047000000207047002904BF89
:103DB0008021A0F84C1000207047000003F1010C96
:103DC0000023B3EB5C0F08BF704700EB42024FEAE1
:103DD0005C03881E02F57F7130F8022F013B21F849
:103DE000042FF9D170470000FEE70000002848BF0B
:103DF000704700F01F01012202FA01F14EF2001299
:103E00004009CEF2000242F8201070474EF60C50E6
:103E1000CEF200000068C0F3022070474EF6145343
:103E200000F00F02CEF2000309011A4400F16043D2
:103E3000B0F1FF3FC8BF03F5644211707047000046
:103E40004EF60C51CEF200010A684FF6FF031A40FD
:103E500060F30A2242F0806040F0FD700860704715
:103E600010B540F60044C4F2010420464FF48041EE
:103E70000122FCF7B9FC20464FF400410022FCF778
:103E8000B3FC10BD10B540F60044C4F20104204656
:103E90004FF480410022FCF7A7FC20464FF400417C
:103EA0000022FCF7A1FC10BD10B540F60044C4F29E
:103EB000010420464FF480410022FCF795FC204687
:103EC0004FF400410122FCF78FFC10BD80B540F695
:103ED0000040C4F201004FF400510022FCF784FCC2
:103EE00080BD00002DE9F041044640F28460C2F23A
:103EF0000000007840F28815042700284FF00000E9
:103F0000C2F200050FF22C084FF0000608BF03278D
:103F100004EB400214F8101052782846FCF70EFA11
:103F200028464146FCF706FB0136F0B28742EFD83F
:103F3000BDE8F0812000000010B540F60044C4F256
:103F4000010420464FF400510122FCF74DFC2046AD
:103F50004FF480410022FCF747FC20464FF400411B
:103F60000022FCF741FC10BD10B540F28814C2F2EB
:103F70000004204600210022FCF7E0F917A12046AA
:103F8000FCF7D8FA204603210122FCF7D7F917A144
:103F90002046FCF7CFFA20460B210122FCF7CEF990
:103FA00014A12046FCF7C6FA204603210222FCF7A2
:103FB000C5F911A12046FCF7BDFA20460B210222CB
:103FC000FCF7BCF90DA12046FCF7B4FA40F27210E0
:103FD000C2F20000002100F055F810BD537769745B
:103FE0006368207369676E616C000000535420752C
:103FF00043000000424C4500555742004E6F74206C
:104000007573650010B540F28814C2F200042046B2
:1040100000210022FCF792F913A12046FCF78AFA4E
:10402000204603210122FCF789F913A12046FCF761
:1040300081FA204603210222FCF780F90FA12046D5
:10404000FCF778FA204603210322FCF777F90CA14C
:104050002046FCF76FFA40F27A10C2F2000000210D
:1040600000F010F810BD00BF53656C6563742056F6
:104070006F6C746167650000305600003132560085
:1040800032345600B0B50C460546FFF72BFF05EB62
:10409000440015F8141040F288144278C2F200046B
:1040A0002046FCF74BF902A12046FCF743FAB0BDCD
:1040B0003E00000010B540F60044C4F20104204662
:1040C0004FF480410122FCF78FFB20464FF4004162
:1040D0000122FCF789FB10BD10B540F60044C4F284
:1040E0000104204680210022FCF77EFB204640216F
:1040F0000022FCF779FB10BD10B540F60044C4F275
:104100000104204680210122FCF76EFB204640215D
:104110000022FCF769FB10BD10B540F60044C4F264
:104120000104204680210022FCF75EFB204640214E
:104130000122FCF759FB10BD8CB040F60004C4F21C
:104140000104FCF76BFBFEF709F8FDF751FDFDF7E5
:10415000ABFDFDF7EBFD40F63845C2F20005284601
:1041600004210426FDF7CAFC286832218163204619
:10417000022101224FF0010AFCF736FB082008A9B2
:1041800040F2881B51C11020202140224FF480575B
:10419000C2F2000B04F58063CDE90074CDE902247E
:1041A000CDE9041406905846142104220794FCF724
:1041B0004BF840F2846740F68045C2F200070026C3
:1041C000C2F200053E702E70FFF71CFFFFF784FF60
:1041D000FFF7B2FE40F2721840F27A19C2F20008FC
:1041E000C2F200093878012826D00028FAD12046EA
:1041F0004FF48061FCF7F2FA002851D10520FCF75A
:10420000CDF920464FF48061FCF7E8FA002847D149
:1042100028780130C1B2022988BF00202870C1B2BD
:104220004846FFF72FFF287802282BD001282CD0F2
:1042300070BBFFF751FF2BE020464FF48061FCF785
:10424000CDFA002862D10520FCF7A8F920464FF4EA
:104250008061FCF7C3FA002858D128780130C1B238
:10426000032988BF00202870C1B24046FFF70AFF2B
:104270002878032842D8DFE800F002393C3FFFF7F6
:1042800001FE3BE0FFF748FF02E0FFF735FF00BF0C
:1042900020464FF48061FCF7A1FA0028F8D000BF57
:1042A00020464FF40071FCF799FA00287FF49AAF8A
:1042B0000520FCF773F920464FF40071FCF78EFAE5
:1042C00000287FF48FAF87F800A02E70FFF7FEFD67
:1042D0005846FCF71DF8FFF747FE00BF20464FF495
:1042E0000071FCF77BFA0028F8D07BE7FFF7B8FDF8
:1042F00004E0FFF7D9FD01E0FFF7DCFE20464FF4B4
:104300008061FCF76BFA0028F8D000BF20464FF41C
:104310000071FCF763FA00287FF464AF0520FCF716
:104320003DF920464FF40071FCF758FA00287FF45D
:1043300059AF3E702E70FFF7CFFEFFF7FDFD5846D8
:10434000FBF7E6FFFFF75EFE20464FF40071FCF737
:1043500045FA0028F8D045E702E008C8121F08C156
:10436000002AFAD170477047002001E001C1121FF6
:10437000002AFBD17047000000000000000001028D
:104380000304060708090000A843000800000020F5
:10439000880100008C010008784400088801002092
:1043A000000F00006843000813F927140831281B88
:1043B0000841041A6D041A9D041AD5141A0908112B
:1043C0001324F4133125140885241C080D261031FC
:1043D0001AC90C1A05041A5504C11A11281A010425
:1043E0001A21041AF11C1409024313020125C032D8
:1043F00009041B01020B19361610010524011009CE
:10440000010424020205240617010705820308158A
:104410001009040133020A2E0705010240072A8110
:104420000711093744113A02441907112B0A0606ED
:10443000112B4001502A07500A3B04941A121713FB
:1044400002021E40830440574D1B02035913F10121
:104450001B08ED041AE904131D02000818080403E0
:1044600009041A0328090101010209010902082AA5
:08447000013F113210000000B1
:04000005080000ED02
:00000001FF
